{
  "_format": "hh-sol-artifact-1",
  "contractName": "NFTMARKETPLACE",
  "sourceName": "contracts/NFTMARKET.sol",
  "abi": [
    {
      "inputs": [],
      "stateMutability": "nonpayable",
      "type": "constructor"
    },
    {
      "inputs": [
        {
          "internalType": "address",
          "name": "sender",
          "type": "address"
        },
        {
          "internalType": "uint256",
          "name": "tokenId",
          "type": "uint256"
        },
        {
          "internalType": "address",
          "name": "owner",
          "type": "address"
        }
      ],
      "name": "ERC721IncorrectOwner",
      "type": "error"
    },
    {
      "inputs": [
        {
          "internalType": "address",
          "name": "operator",
          "type": "address"
        },
        {
          "internalType": "uint256",
          "name": "tokenId",
          "type": "uint256"
        }
      ],
      "name": "ERC721InsufficientApproval",
      "type": "error"
    },
    {
      "inputs": [
        {
          "internalType": "address",
          "name": "approver",
          "type": "address"
        }
      ],
      "name": "ERC721InvalidApprover",
      "type": "error"
    },
    {
      "inputs": [
        {
          "internalType": "address",
          "name": "operator",
          "type": "address"
        }
      ],
      "name": "ERC721InvalidOperator",
      "type": "error"
    },
    {
      "inputs": [
        {
          "internalType": "address",
          "name": "owner",
          "type": "address"
        }
      ],
      "name": "ERC721InvalidOwner",
      "type": "error"
    },
    {
      "inputs": [
        {
          "internalType": "address",
          "name": "receiver",
          "type": "address"
        }
      ],
      "name": "ERC721InvalidReceiver",
      "type": "error"
    },
    {
      "inputs": [
        {
          "internalType": "address",
          "name": "sender",
          "type": "address"
        }
      ],
      "name": "ERC721InvalidSender",
      "type": "error"
    },
    {
      "inputs": [
        {
          "internalType": "uint256",
          "name": "tokenId",
          "type": "uint256"
        }
      ],
      "name": "ERC721NonexistentToken",
      "type": "error"
    },
    {
      "anonymous": false,
      "inputs": [
        {
          "indexed": true,
          "internalType": "address",
          "name": "owner",
          "type": "address"
        },
        {
          "indexed": true,
          "internalType": "address",
          "name": "approved",
          "type": "address"
        },
        {
          "indexed": true,
          "internalType": "uint256",
          "name": "tokenId",
          "type": "uint256"
        }
      ],
      "name": "Approval",
      "type": "event"
    },
    {
      "anonymous": false,
      "inputs": [
        {
          "indexed": true,
          "internalType": "address",
          "name": "owner",
          "type": "address"
        },
        {
          "indexed": true,
          "internalType": "address",
          "name": "operator",
          "type": "address"
        },
        {
          "indexed": false,
          "internalType": "bool",
          "name": "approved",
          "type": "bool"
        }
      ],
      "name": "ApprovalForAll",
      "type": "event"
    },
    {
      "anonymous": false,
      "inputs": [
        {
          "indexed": false,
          "internalType": "uint256",
          "name": "_fromTokenId",
          "type": "uint256"
        },
        {
          "indexed": false,
          "internalType": "uint256",
          "name": "_toTokenId",
          "type": "uint256"
        }
      ],
      "name": "BatchMetadataUpdate",
      "type": "event"
    },
    {
      "anonymous": false,
      "inputs": [
        {
          "indexed": false,
          "internalType": "uint256",
          "name": "_tokenId",
          "type": "uint256"
        }
      ],
      "name": "MetadataUpdate",
      "type": "event"
    },
    {
      "anonymous": false,
      "inputs": [
        {
          "indexed": true,
          "internalType": "address",
          "name": "from",
          "type": "address"
        },
        {
          "indexed": true,
          "internalType": "address",
          "name": "to",
          "type": "address"
        },
        {
          "indexed": true,
          "internalType": "uint256",
          "name": "tokenId",
          "type": "uint256"
        }
      ],
      "name": "Transfer",
      "type": "event"
    },
    {
      "inputs": [
        {
          "internalType": "address",
          "name": "to",
          "type": "address"
        },
        {
          "internalType": "uint256",
          "name": "tokenId",
          "type": "uint256"
        }
      ],
      "name": "approve",
      "outputs": [],
      "stateMutability": "nonpayable",
      "type": "function"
    },
    {
      "inputs": [
        {
          "internalType": "address",
          "name": "owner",
          "type": "address"
        }
      ],
      "name": "balanceOf",
      "outputs": [
        {
          "internalType": "uint256",
          "name": "",
          "type": "uint256"
        }
      ],
      "stateMutability": "view",
      "type": "function"
    },
    {
      "inputs": [
        {
          "internalType": "uint256",
          "name": "_strtPrice",
          "type": "uint256"
        },
        {
          "internalType": "uint256",
          "name": "_royalty",
          "type": "uint256"
        },
        {
          "internalType": "string",
          "name": "_tokenURI",
          "type": "string"
        }
      ],
      "name": "createNftListing",
      "outputs": [],
      "stateMutability": "payable",
      "type": "function"
    },
    {
      "inputs": [
        {
          "internalType": "uint256",
          "name": "_tokenId",
          "type": "uint256"
        }
      ],
      "name": "finalizeBidding",
      "outputs": [],
      "stateMutability": "nonpayable",
      "type": "function"
    },
    {
      "inputs": [
        {
          "internalType": "uint256",
          "name": "_tokenId",
          "type": "uint256"
        }
      ],
      "name": "getANft",
      "outputs": [
        {
          "components": [
            {
              "internalType": "uint256",
              "name": "startPrice",
              "type": "uint256"
            },
            {
              "internalType": "uint256",
              "name": "currentPrice",
              "type": "uint256"
            },
            {
              "internalType": "uint256",
              "name": "biddingTime",
              "type": "uint256"
            },
            {
              "internalType": "uint256",
              "name": "royaltyFee",
              "type": "uint256"
            },
            {
              "internalType": "uint256",
              "name": "tokenId",
              "type": "uint256"
            },
            {
              "internalType": "bool",
              "name": "isListed",
              "type": "bool"
            },
            {
              "internalType": "address payable",
              "name": "owner",
              "type": "address"
            },
            {
              "internalType": "address",
              "name": "highestBidder",
              "type": "address"
            },
            {
              "internalType": "address payable",
              "name": "minter",
              "type": "address"
            },
            {
              "internalType": "string",
              "name": "metaDataUrl",
              "type": "string"
            }
          ],
          "internalType": "struct NFTMARKETPLACE.NftListing",
          "name": "",
          "type": "tuple"
        }
      ],
      "stateMutability": "view",
      "type": "function"
    },
    {
      "inputs": [],
      "name": "getAllListedNfts",
      "outputs": [
        {
          "components": [
            {
              "internalType": "uint256",
              "name": "startPrice",
              "type": "uint256"
            },
            {
              "internalType": "uint256",
              "name": "currentPrice",
              "type": "uint256"
            },
            {
              "internalType": "uint256",
              "name": "biddingTime",
              "type": "uint256"
            },
            {
              "internalType": "uint256",
              "name": "royaltyFee",
              "type": "uint256"
            },
            {
              "internalType": "uint256",
              "name": "tokenId",
              "type": "uint256"
            },
            {
              "internalType": "bool",
              "name": "isListed",
              "type": "bool"
            },
            {
              "internalType": "address payable",
              "name": "owner",
              "type": "address"
            },
            {
              "internalType": "address",
              "name": "highestBidder",
              "type": "address"
            },
            {
              "internalType": "address payable",
              "name": "minter",
              "type": "address"
            },
            {
              "internalType": "string",
              "name": "metaDataUrl",
              "type": "string"
            }
          ],
          "internalType": "struct NFTMARKETPLACE.NftListing[]",
          "name": "",
          "type": "tuple[]"
        }
      ],
      "stateMutability": "view",
      "type": "function"
    },
    {
      "inputs": [
        {
          "internalType": "uint256",
          "name": "tokenId",
          "type": "uint256"
        }
      ],
      "name": "getApproved",
      "outputs": [
        {
          "internalType": "address",
          "name": "",
          "type": "address"
        }
      ],
      "stateMutability": "view",
      "type": "function"
    },
    {
      "inputs": [
        {
          "internalType": "address",
          "name": "owner",
          "type": "address"
        },
        {
          "internalType": "address",
          "name": "operator",
          "type": "address"
        }
      ],
      "name": "isApprovedForAll",
      "outputs": [
        {
          "internalType": "bool",
          "name": "",
          "type": "bool"
        }
      ],
      "stateMutability": "view",
      "type": "function"
    },
    {
      "inputs": [],
      "name": "name",
      "outputs": [
        {
          "internalType": "string",
          "name": "",
          "type": "string"
        }
      ],
      "stateMutability": "view",
      "type": "function"
    },
    {
      "inputs": [
        {
          "internalType": "uint256",
          "name": "tokenId",
          "type": "uint256"
        }
      ],
      "name": "ownerOf",
      "outputs": [
        {
          "internalType": "address",
          "name": "",
          "type": "address"
        }
      ],
      "stateMutability": "view",
      "type": "function"
    },
    {
      "inputs": [
        {
          "internalType": "uint256",
          "name": "_tokenId",
          "type": "uint256"
        }
      ],
      "name": "participateBidding",
      "outputs": [],
      "stateMutability": "payable",
      "type": "function"
    },
    {
      "inputs": [
        {
          "internalType": "uint256",
          "name": "_tokenId",
          "type": "uint256"
        }
      ],
      "name": "reList",
      "outputs": [],
      "stateMutability": "payable",
      "type": "function"
    },
    {
      "inputs": [
        {
          "internalType": "address",
          "name": "from",
          "type": "address"
        },
        {
          "internalType": "address",
          "name": "to",
          "type": "address"
        },
        {
          "internalType": "uint256",
          "name": "tokenId",
          "type": "uint256"
        }
      ],
      "name": "safeTransferFrom",
      "outputs": [],
      "stateMutability": "nonpayable",
      "type": "function"
    },
    {
      "inputs": [
        {
          "internalType": "address",
          "name": "from",
          "type": "address"
        },
        {
          "internalType": "address",
          "name": "to",
          "type": "address"
        },
        {
          "internalType": "uint256",
          "name": "tokenId",
          "type": "uint256"
        },
        {
          "internalType": "bytes",
          "name": "data",
          "type": "bytes"
        }
      ],
      "name": "safeTransferFrom",
      "outputs": [],
      "stateMutability": "nonpayable",
      "type": "function"
    },
    {
      "inputs": [
        {
          "internalType": "address",
          "name": "operator",
          "type": "address"
        },
        {
          "internalType": "bool",
          "name": "approved",
          "type": "bool"
        }
      ],
      "name": "setApprovalForAll",
      "outputs": [],
      "stateMutability": "nonpayable",
      "type": "function"
    },
    {
      "inputs": [
        {
          "internalType": "bytes4",
          "name": "interfaceId",
          "type": "bytes4"
        }
      ],
      "name": "supportsInterface",
      "outputs": [
        {
          "internalType": "bool",
          "name": "",
          "type": "bool"
        }
      ],
      "stateMutability": "view",
      "type": "function"
    },
    {
      "inputs": [],
      "name": "symbol",
      "outputs": [
        {
          "internalType": "string",
          "name": "",
          "type": "string"
        }
      ],
      "stateMutability": "view",
      "type": "function"
    },
    {
      "inputs": [
        {
          "internalType": "uint256",
          "name": "tokenId",
          "type": "uint256"
        }
      ],
      "name": "tokenURI",
      "outputs": [
        {
          "internalType": "string",
          "name": "",
          "type": "string"
        }
      ],
      "stateMutability": "view",
      "type": "function"
    },
    {
      "inputs": [
        {
          "internalType": "address",
          "name": "from",
          "type": "address"
        },
        {
          "internalType": "address",
          "name": "to",
          "type": "address"
        },
        {
          "internalType": "uint256",
          "name": "tokenId",
          "type": "uint256"
        }
      ],
      "name": "transferFrom",
      "outputs": [],
      "stateMutability": "nonpayable",
      "type": "function"
    }
  ],
  "bytecode": "0x608060405266038d7ea4c6800060085534801561001b57600080fd5b506040518060400160405280600e81526020017f4e46544d41524b4554504c4143450000000000000000000000000000000000008152506040518060400160405280600481526020017f4e4654530000000000000000000000000000000000000000000000000000000081525081600090816100979190610340565b5080600190816100a79190610340565b50505033600760006101000a81548173ffffffffffffffffffffffffffffffffffffffff021916908373ffffffffffffffffffffffffffffffffffffffff160217905550610412565b600081519050919050565b7f4e487b7100000000000000000000000000000000000000000000000000000000600052604160045260246000fd5b7f4e487b7100000000000000000000000000000000000000000000000000000000600052602260045260246000fd5b6000600282049050600182168061017157607f821691505b6020821081036101845761018361012a565b5b50919050565b60008190508160005260206000209050919050565b60006020601f8301049050919050565b600082821b905092915050565b6000600883026101ec7fffffffffffffffffffffffffffffffffffffffffffffffffffffffffffffffff826101af565b6101f686836101af565b95508019841693508086168417925050509392505050565b6000819050919050565b6000819050919050565b600061023d6102386102338461020e565b610218565b61020e565b9050919050565b6000819050919050565b61025783610222565b61026b61026382610244565b8484546101bc565b825550505050565b600090565b610280610273565b61028b81848461024e565b505050565b5b818110156102af576102a4600082610278565b600181019050610291565b5050565b601f8211156102f4576102c58161018a565b6102ce8461019f565b810160208510156102dd578190505b6102f16102e98561019f565b830182610290565b50505b505050565b600082821c905092915050565b6000610317600019846008026102f9565b1980831691505092915050565b60006103308383610306565b9150826002028217905092915050565b610349826100f0565b67ffffffffffffffff811115610362576103616100fb565b5b61036c8254610159565b6103778282856102b3565b600060209050601f8311600181146103aa5760008415610398578287015190505b6103a28582610324565b86555061040a565b601f1984166103b88661018a565b60005b828110156103e0578489015182556001820191506020850194506020810190506103bb565b868310156103fd57848901516103f9601f891682610306565b8355505b6001600288020188555050505b505050505050565b6144bc806104216000396000f3fe6080604052600436106101145760003560e01c80636352211e116100a0578063a22cb46511610064578063a22cb465146103a7578063b88d4fde146103d0578063bb81ff5c146103f9578063c87b56dd14610415578063e985e9c51461045257610114565b80636352211e146102bb57806370a08231146102f85780637a8e4a831461033557806395ce4a3b1461035157806395d89b411461037c57610114565b806311a5d194116100e757806311a5d194146101e757806323b872dd1461021057806324b89db71461023957806342842e0e146102765780634cc41e771461029f57610114565b806301ffc9a71461011957806306fdde0314610156578063081812fc14610181578063095ea7b3146101be575b600080fd5b34801561012557600080fd5b50610140600480360381019061013b91906130e1565b61048f565b60405161014d9190613129565b60405180910390f35b34801561016257600080fd5b5061016b6104f0565b60405161017891906131d4565b60405180910390f35b34801561018d57600080fd5b506101a860048036038101906101a3919061322c565b610582565b6040516101b5919061329a565b60405180910390f35b3480156101ca57600080fd5b506101e560048036038101906101e091906132e1565b61059e565b005b3480156101f357600080fd5b5061020e6004803603810190610209919061322c565b6105b4565b005b34801561021c57600080fd5b5061023760048036038101906102329190613321565b610adb565b005b34801561024557600080fd5b50610260600480360381019061025b919061322c565b610bdd565b60405161026d91906134e6565b60405180910390f35b34801561028257600080fd5b5061029d60048036038101906102989190613321565b610dec565b005b6102b960048036038101906102b4919061322c565b610e0c565b005b3480156102c757600080fd5b506102e260048036038101906102dd919061322c565b6111a9565b6040516102ef919061329a565b60405180910390f35b34801561030457600080fd5b5061031f600480360381019061031a9190613508565b6111bb565b60405161032c9190613544565b60405180910390f35b61034f600480360381019061034a919061322c565b611275565b005b34801561035d57600080fd5b50610366611728565b60405161037391906136fb565b60405180910390f35b34801561038857600080fd5b506103916119c2565b60405161039e91906131d4565b60405180910390f35b3480156103b357600080fd5b506103ce60048036038101906103c99190613749565b611a54565b005b3480156103dc57600080fd5b506103f760048036038101906103f291906138be565b611a6a565b005b610413600480360381019061040e91906139e2565b611a8f565b005b34801561042157600080fd5b5061043c6004803603810190610437919061322c565b611da6565b60405161044991906131d4565b60405180910390f35b34801561045e57600080fd5b5061047960048036038101906104749190613a51565b611eb9565b6040516104869190613129565b60405180910390f35b6000634906490660e01b7bffffffffffffffffffffffffffffffffffffffffffffffffffffffff1916827bffffffffffffffffffffffffffffffffffffffffffffffffffffffff191614806104e957506104e882611f4d565b5b9050919050565b6060600080546104ff90613ac0565b80601f016020809104026020016040519081016040528092919081815260200182805461052b90613ac0565b80156105785780601f1061054d57610100808354040283529160200191610578565b820191906000526020600020905b81548152906001019060200180831161055b57829003601f168201915b5050505050905090565b600061058d8261202f565b50610597826120b7565b9050919050565b6105b082826105ab6120f4565b6120fc565b5050565b6000600960008381526020019081526020016000206040518061014001604052908160008201548152602001600182015481526020016002820154815260200160038201548152602001600482015481526020016005820160009054906101000a900460ff161515151581526020016005820160019054906101000a900473ffffffffffffffffffffffffffffffffffffffff1673ffffffffffffffffffffffffffffffffffffffff1673ffffffffffffffffffffffffffffffffffffffff1681526020016006820160009054906101000a900473ffffffffffffffffffffffffffffffffffffffff1673ffffffffffffffffffffffffffffffffffffffff1673ffffffffffffffffffffffffffffffffffffffff1681526020016007820160009054906101000a900473ffffffffffffffffffffffffffffffffffffffff1673ffffffffffffffffffffffffffffffffffffffff1673ffffffffffffffffffffffffffffffffffffffff16815260200160088201805461073490613ac0565b80601f016020809104026020016040519081016040528092919081815260200182805461076090613ac0565b80156107ad5780601f10610782576101008083540402835291602001916107ad565b820191906000526020600020905b81548152906001019060200180831161079057829003601f168201915b5050505050815250509050600115158160a00151151514610803576040517f08c379a00000000000000000000000000000000000000000000000000000000081526004016107fa90613b3d565b60405180910390fd5b600073ffffffffffffffffffffffffffffffffffffffff168160e0015173ffffffffffffffffffffffffffffffffffffffff16036108515760008160a001901515908115158152505061096a565b60006064826020015183606001516108699190613b8c565b6108739190613bfd565b905081610100015173ffffffffffffffffffffffffffffffffffffffff166108fc829081150290604051600060405180830381858888f193505050501580156108c0573d6000803e3d6000fd5b508160c0015173ffffffffffffffffffffffffffffffffffffffff166108fc8284602001516108ef9190613c2e565b9081150290604051600060405180830381858888f1935050505015801561091a573d6000803e3d6000fd5b508160e001518260c0019073ffffffffffffffffffffffffffffffffffffffff16908173ffffffffffffffffffffffffffffffffffffffff168152505060008260a0019015159081151581525050505b8060096000848152602001908152602001600020600082015181600001556020820151816001015560408201518160020155606082015181600301556080820151816004015560a08201518160050160006101000a81548160ff02191690831515021790555060c08201518160050160016101000a81548173ffffffffffffffffffffffffffffffffffffffff021916908373ffffffffffffffffffffffffffffffffffffffff16021790555060e08201518160060160006101000a81548173ffffffffffffffffffffffffffffffffffffffff021916908373ffffffffffffffffffffffffffffffffffffffff1602179055506101008201518160070160006101000a81548173ffffffffffffffffffffffffffffffffffffffff021916908373ffffffffffffffffffffffffffffffffffffffff160217905550610120820151816008019081610abc9190613e0e565b50905050610ad7610acc836111a9565b8260e001518461210e565b5050565b600073ffffffffffffffffffffffffffffffffffffffff168273ffffffffffffffffffffffffffffffffffffffff1603610b4d5760006040517f64a0ae92000000000000000000000000000000000000000000000000000000008152600401610b44919061329a565b60405180910390fd5b6000610b618383610b5c6120f4565b61227b565b90508373ffffffffffffffffffffffffffffffffffffffff168173ffffffffffffffffffffffffffffffffffffffff1614610bd7578382826040517f64283d7b000000000000000000000000000000000000000000000000000000008152600401610bce93929190613ee0565b60405180910390fd5b50505050565b610be5612fde565b600960008381526020019081526020016000206040518061014001604052908160008201548152602001600182015481526020016002820154815260200160038201548152602001600482015481526020016005820160009054906101000a900460ff161515151581526020016005820160019054906101000a900473ffffffffffffffffffffffffffffffffffffffff1673ffffffffffffffffffffffffffffffffffffffff1673ffffffffffffffffffffffffffffffffffffffff1681526020016006820160009054906101000a900473ffffffffffffffffffffffffffffffffffffffff1673ffffffffffffffffffffffffffffffffffffffff1673ffffffffffffffffffffffffffffffffffffffff1681526020016007820160009054906101000a900473ffffffffffffffffffffffffffffffffffffffff1673ffffffffffffffffffffffffffffffffffffffff1673ffffffffffffffffffffffffffffffffffffffff168152602001600882018054610d6390613ac0565b80601f0160208091040260200160405190810160405280929190818152602001828054610d8f90613ac0565b8015610ddc5780601f10610db157610100808354040283529160200191610ddc565b820191906000526020600020905b815481529060010190602001808311610dbf57829003601f168201915b5050505050815250509050919050565b610e0783838360405180602001604052806000815250611a6a565b505050565b6000600960008381526020019081526020016000206040518061014001604052908160008201548152602001600182015481526020016002820154815260200160038201548152602001600482015481526020016005820160009054906101000a900460ff161515151581526020016005820160019054906101000a900473ffffffffffffffffffffffffffffffffffffffff1673ffffffffffffffffffffffffffffffffffffffff1673ffffffffffffffffffffffffffffffffffffffff1681526020016006820160009054906101000a900473ffffffffffffffffffffffffffffffffffffffff1673ffffffffffffffffffffffffffffffffffffffff1673ffffffffffffffffffffffffffffffffffffffff1681526020016007820160009054906101000a900473ffffffffffffffffffffffffffffffffffffffff1673ffffffffffffffffffffffffffffffffffffffff1673ffffffffffffffffffffffffffffffffffffffff168152602001600882018054610f8c90613ac0565b80601f0160208091040260200160405190810160405280929190818152602001828054610fb890613ac0565b80156110055780601f10610fda57610100808354040283529160200191611005565b820191906000526020600020905b815481529060010190602001808311610fe857829003601f168201915b5050505050815250509050600015158160a0015115151461105b576040517f08c379a000000000000000000000000000000000000000000000000000000000815260040161105290613f89565b60405180910390fd5b66038d7ea4c6800034146110a4576040517f08c379a000000000000000000000000000000000000000000000000000000000815260040161109b90613ff5565b60405180910390fd5b3373ffffffffffffffffffffffffffffffffffffffff168160c0015173ffffffffffffffffffffffffffffffffffffffff1614611116576040517f08c379a000000000000000000000000000000000000000000000000000000000815260040161110d90614061565b60405180910390fd5b60018160a00190151590811515815250508060200151816020018181525050600760009054906101000a900473ffffffffffffffffffffffffffffffffffffffff1673ffffffffffffffffffffffffffffffffffffffff166108fc66038d7ea4c680009081150290604051600060405180830381858888f193505050501580156111a4573d6000803e3d6000fd5b505050565b60006111b48261202f565b9050919050565b60008073ffffffffffffffffffffffffffffffffffffffff168273ffffffffffffffffffffffffffffffffffffffff160361122e5760006040517f89c62b64000000000000000000000000000000000000000000000000000000008152600401611225919061329a565b60405180910390fd5b600360008373ffffffffffffffffffffffffffffffffffffffff1673ffffffffffffffffffffffffffffffffffffffff168152602001908152602001600020549050919050565b6000600960008381526020019081526020016000206040518061014001604052908160008201548152602001600182015481526020016002820154815260200160038201548152602001600482015481526020016005820160009054906101000a900460ff161515151581526020016005820160019054906101000a900473ffffffffffffffffffffffffffffffffffffffff1673ffffffffffffffffffffffffffffffffffffffff1673ffffffffffffffffffffffffffffffffffffffff1681526020016006820160009054906101000a900473ffffffffffffffffffffffffffffffffffffffff1673ffffffffffffffffffffffffffffffffffffffff1673ffffffffffffffffffffffffffffffffffffffff1681526020016007820160009054906101000a900473ffffffffffffffffffffffffffffffffffffffff1673ffffffffffffffffffffffffffffffffffffffff1673ffffffffffffffffffffffffffffffffffffffff1681526020016008820180546113f590613ac0565b80601f016020809104026020016040519081016040528092919081815260200182805461142190613ac0565b801561146e5780601f106114435761010080835404028352916020019161146e565b820191906000526020600020905b81548152906001019060200180831161145157829003601f168201915b505050505081525050905034816020015111156114c0576040517f08c379a00000000000000000000000000000000000000000000000000000000081526004016114b7906140f3565b60405180910390fd5b8060a00151611504576040517f08c379a00000000000000000000000000000000000000000000000000000000081526004016114fb9061415f565b60405180910390fd5b600073ffffffffffffffffffffffffffffffffffffffff168160e0015173ffffffffffffffffffffffffffffffffffffffff161461158c578060e0015173ffffffffffffffffffffffffffffffffffffffff166108fc82602001519081150290604051600060405180830381858888f1935050505015801561158a573d6000803e3d6000fd5b505b34816020018181525050338160e0019073ffffffffffffffffffffffffffffffffffffffff16908173ffffffffffffffffffffffffffffffffffffffff16815250508060096000848152602001908152602001600020600082015181600001556020820151816001015560408201518160020155606082015181600301556080820151816004015560a08201518160050160006101000a81548160ff02191690831515021790555060c08201518160050160016101000a81548173ffffffffffffffffffffffffffffffffffffffff021916908373ffffffffffffffffffffffffffffffffffffffff16021790555060e08201518160060160006101000a81548173ffffffffffffffffffffffffffffffffffffffff021916908373ffffffffffffffffffffffffffffffffffffffff1602179055506101008201518160070160006101000a81548173ffffffffffffffffffffffffffffffffffffffff021916908373ffffffffffffffffffffffffffffffffffffffff1602179055506101208201518160080190816117209190613e0e565b509050505050565b60606000600a5467ffffffffffffffff81111561174857611747613793565b5b60405190808252806020026020018201604052801561178157816020015b61176e612fde565b8152602001906001900390816117665790505b50905060005b600a548110156119ba57600960008281526020019081526020016000206040518061014001604052908160008201548152602001600182015481526020016002820154815260200160038201548152602001600482015481526020016005820160009054906101000a900460ff161515151581526020016005820160019054906101000a900473ffffffffffffffffffffffffffffffffffffffff1673ffffffffffffffffffffffffffffffffffffffff1673ffffffffffffffffffffffffffffffffffffffff1681526020016006820160009054906101000a900473ffffffffffffffffffffffffffffffffffffffff1673ffffffffffffffffffffffffffffffffffffffff1673ffffffffffffffffffffffffffffffffffffffff1681526020016007820160009054906101000a900473ffffffffffffffffffffffffffffffffffffffff1673ffffffffffffffffffffffffffffffffffffffff1673ffffffffffffffffffffffffffffffffffffffff16815260200160088201805461190f90613ac0565b80601f016020809104026020016040519081016040528092919081815260200182805461193b90613ac0565b80156119885780601f1061195d57610100808354040283529160200191611988565b820191906000526020600020905b81548152906001019060200180831161196b57829003601f168201915b5050505050815250508282815181106119a4576119a361417f565b5b6020026020010181905250806001019050611787565b508091505090565b6060600180546119d190613ac0565b80601f01602080910402602001604051908101604052809291908181526020018280546119fd90613ac0565b8015611a4a5780601f10611a1f57610100808354040283529160200191611a4a565b820191906000526020600020905b815481529060010190602001808311611a2d57829003601f168201915b5050505050905090565b611a66611a5f6120f4565b8383612495565b5050565b611a75848484610adb565b611a89611a806120f4565b85858585612604565b50505050565b6032821115611ad3576040517f08c379a0000000000000000000000000000000000000000000000000000000008152600401611aca90614220565b60405180910390fd5b66071afd498d0000831015611b1d576040517f08c379a0000000000000000000000000000000000000000000000000000000008152600401611b14906142b2565b60405180910390fd5b611b2933600a546127b5565b611b35600a54826127d3565b6000604051806101400160405280858152602001858152602001428152602001848152602001600a5481526020016001151581526020013373ffffffffffffffffffffffffffffffffffffffff168152602001600073ffffffffffffffffffffffffffffffffffffffff1681526020013373ffffffffffffffffffffffffffffffffffffffff1681526020018381525090508060096000600a548152602001908152602001600020600082015181600001556020820151816001015560408201518160020155606082015181600301556080820151816004015560a08201518160050160006101000a81548160ff02191690831515021790555060c08201518160050160016101000a81548173ffffffffffffffffffffffffffffffffffffffff021916908373ffffffffffffffffffffffffffffffffffffffff16021790555060e08201518160060160006101000a81548173ffffffffffffffffffffffffffffffffffffffff021916908373ffffffffffffffffffffffffffffffffffffffff1602179055506101008201518160070160006101000a81548173ffffffffffffffffffffffffffffffffffffffff021916908373ffffffffffffffffffffffffffffffffffffffff160217905550610120820151816008019081611d1b9190613e0e565b50905050600760009054906101000a900473ffffffffffffffffffffffffffffffffffffffff1673ffffffffffffffffffffffffffffffffffffffff166108fc349081150290604051600060405180830381858888f19350505050158015611d87573d6000803e3d6000fd5b50600a6000815480929190611d9b906142d2565b919050555050505050565b6060611db18261202f565b506000600660008481526020019081526020016000208054611dd290613ac0565b80601f0160208091040260200160405190810160405280929190818152602001828054611dfe90613ac0565b8015611e4b5780601f10611e2057610100808354040283529160200191611e4b565b820191906000526020600020905b815481529060010190602001808311611e2e57829003601f168201915b505050505090506000611e5c61282f565b90506000815103611e71578192505050611eb4565b600082511115611ea6578082604051602001611e8e929190614356565b60405160208183030381529060405292505050611eb4565b611eaf84612846565b925050505b919050565b6000600560008473ffffffffffffffffffffffffffffffffffffffff1673ffffffffffffffffffffffffffffffffffffffff16815260200190815260200160002060008373ffffffffffffffffffffffffffffffffffffffff1673ffffffffffffffffffffffffffffffffffffffff16815260200190815260200160002060009054906101000a900460ff16905092915050565b60007f80ac58cd000000000000000000000000000000000000000000000000000000007bffffffffffffffffffffffffffffffffffffffffffffffffffffffff1916827bffffffffffffffffffffffffffffffffffffffffffffffffffffffff1916148061201857507f5b5e139f000000000000000000000000000000000000000000000000000000007bffffffffffffffffffffffffffffffffffffffffffffffffffffffff1916827bffffffffffffffffffffffffffffffffffffffffffffffffffffffff1916145b806120285750612027826128af565b5b9050919050565b60008061203b83612919565b9050600073ffffffffffffffffffffffffffffffffffffffff168173ffffffffffffffffffffffffffffffffffffffff16036120ae57826040517f7e2732890000000000000000000000000000000000000000000000000000000081526004016120a59190613544565b60405180910390fd5b80915050919050565b60006004600083815260200190815260200160002060009054906101000a900473ffffffffffffffffffffffffffffffffffffffff169050919050565b600033905090565b6121098383836001612956565b505050565b600073ffffffffffffffffffffffffffffffffffffffff168273ffffffffffffffffffffffffffffffffffffffff16036121805760006040517f64a0ae92000000000000000000000000000000000000000000000000000000008152600401612177919061329a565b60405180910390fd5b600061218e8383600061227b565b9050600073ffffffffffffffffffffffffffffffffffffffff168173ffffffffffffffffffffffffffffffffffffffff160361220157816040517f7e2732890000000000000000000000000000000000000000000000000000000081526004016121f89190613544565b60405180910390fd5b8373ffffffffffffffffffffffffffffffffffffffff168173ffffffffffffffffffffffffffffffffffffffff1614612275578382826040517f64283d7b00000000000000000000000000000000000000000000000000000000815260040161226c93929190613ee0565b60405180910390fd5b50505050565b60008061228784612919565b9050600073ffffffffffffffffffffffffffffffffffffffff168373ffffffffffffffffffffffffffffffffffffffff16146122c9576122c8818486612b1b565b5b600073ffffffffffffffffffffffffffffffffffffffff168173ffffffffffffffffffffffffffffffffffffffff161461235a5761230b600085600080612956565b6001600360008373ffffffffffffffffffffffffffffffffffffffff1673ffffffffffffffffffffffffffffffffffffffff168152602001908152602001600020600082825403925050819055505b600073ffffffffffffffffffffffffffffffffffffffff168573ffffffffffffffffffffffffffffffffffffffff16146123dd576001600360008773ffffffffffffffffffffffffffffffffffffffff1673ffffffffffffffffffffffffffffffffffffffff168152602001908152602001600020600082825401925050819055505b846002600086815260200190815260200160002060006101000a81548173ffffffffffffffffffffffffffffffffffffffff021916908373ffffffffffffffffffffffffffffffffffffffff160217905550838573ffffffffffffffffffffffffffffffffffffffff168273ffffffffffffffffffffffffffffffffffffffff167fddf252ad1be2c89b69c2b068fc378daa952ba7f163c4a11628f55a4df523b3ef60405160405180910390a4809150509392505050565b600073ffffffffffffffffffffffffffffffffffffffff168273ffffffffffffffffffffffffffffffffffffffff160361250657816040517f5b08ba180000000000000000000000000000000000000000000000000000000081526004016124fd919061329a565b60405180910390fd5b80600560008573ffffffffffffffffffffffffffffffffffffffff1673ffffffffffffffffffffffffffffffffffffffff16815260200190815260200160002060008473ffffffffffffffffffffffffffffffffffffffff1673ffffffffffffffffffffffffffffffffffffffff16815260200190815260200160002060006101000a81548160ff0219169083151502179055508173ffffffffffffffffffffffffffffffffffffffff168373ffffffffffffffffffffffffffffffffffffffff167f17307eab39ab6107e8899845ad3d59bd9653f200f220920489ca2b5937696c31836040516125f79190613129565b60405180910390a3505050565b60008373ffffffffffffffffffffffffffffffffffffffff163b11156127ae578273ffffffffffffffffffffffffffffffffffffffff1663150b7a02868685856040518563ffffffff1660e01b815260040161266394939291906143cf565b6020604051808303816000875af192505050801561269f57506040513d601f19601f8201168201806040525081019061269c9190614430565b60015b612723573d80600081146126cf576040519150601f19603f3d011682016040523d82523d6000602084013e6126d4565b606091505b50600081510361271b57836040517f64a0ae92000000000000000000000000000000000000000000000000000000008152600401612712919061329a565b60405180910390fd5b805181602001fd5b63150b7a0260e01b7bffffffffffffffffffffffffffffffffffffffffffffffffffffffff1916817bffffffffffffffffffffffffffffffffffffffffffffffffffffffff1916146127ac57836040517f64a0ae920000000000000000000000000000000000000000000000000000000081526004016127a3919061329a565b60405180910390fd5b505b5050505050565b6127cf828260405180602001604052806000815250612bdf565b5050565b806006600084815260200190815260200160002090816127f39190613e0e565b507ff8e1a15aba9398e019f0b49df1a4fde98ee17ae345cb5f6b5e2c27f5033e8ce7826040516128239190613544565b60405180910390a15050565b606060405180602001604052806000815250905090565b60606128518261202f565b50600061285c61282f565b9050600081511161287c57604051806020016040528060008152506128a7565b8061288684612c03565b604051602001612897929190614356565b6040516020818303038152906040525b915050919050565b60007f01ffc9a7000000000000000000000000000000000000000000000000000000007bffffffffffffffffffffffffffffffffffffffffffffffffffffffff1916827bffffffffffffffffffffffffffffffffffffffffffffffffffffffff1916149050919050565b60006002600083815260200190815260200160002060009054906101000a900473ffffffffffffffffffffffffffffffffffffffff169050919050565b808061298f5750600073ffffffffffffffffffffffffffffffffffffffff168273ffffffffffffffffffffffffffffffffffffffff1614155b15612ac357600061299f8461202f565b9050600073ffffffffffffffffffffffffffffffffffffffff168373ffffffffffffffffffffffffffffffffffffffff1614158015612a0a57508273ffffffffffffffffffffffffffffffffffffffff168173ffffffffffffffffffffffffffffffffffffffff1614155b8015612a1d5750612a1b8184611eb9565b155b15612a5f57826040517fa9fbf51f000000000000000000000000000000000000000000000000000000008152600401612a56919061329a565b60405180910390fd5b8115612ac157838573ffffffffffffffffffffffffffffffffffffffff168273ffffffffffffffffffffffffffffffffffffffff167f8c5be1e5ebec7d5bd14f71427d1e84f3dd0314c0f7b2291e5b200ac8c7c3b92560405160405180910390a45b505b836004600085815260200190815260200160002060006101000a81548173ffffffffffffffffffffffffffffffffffffffff021916908373ffffffffffffffffffffffffffffffffffffffff16021790555050505050565b612b26838383612cd1565b612bda57600073ffffffffffffffffffffffffffffffffffffffff168373ffffffffffffffffffffffffffffffffffffffff1603612b9b57806040517f7e273289000000000000000000000000000000000000000000000000000000008152600401612b929190613544565b60405180910390fd5b81816040517f177e802f000000000000000000000000000000000000000000000000000000008152600401612bd192919061445d565b60405180910390fd5b505050565b612be98383612d92565b612bfe612bf46120f4565b6000858585612604565b505050565b606060006001612c1284612e8b565b01905060008167ffffffffffffffff811115612c3157612c30613793565b5b6040519080825280601f01601f191660200182016040528015612c635781602001600182028036833780820191505090505b509050600082602001820190505b600115612cc6578080600190039150507f3031323334353637383961626364656600000000000000000000000000000000600a86061a8153600a8581612cba57612cb9613bce565b5b04945060008503612c71575b819350505050919050565b60008073ffffffffffffffffffffffffffffffffffffffff168373ffffffffffffffffffffffffffffffffffffffff1614158015612d8957508273ffffffffffffffffffffffffffffffffffffffff168473ffffffffffffffffffffffffffffffffffffffff161480612d4a5750612d498484611eb9565b5b80612d8857508273ffffffffffffffffffffffffffffffffffffffff16612d70836120b7565b73ffffffffffffffffffffffffffffffffffffffff16145b5b90509392505050565b600073ffffffffffffffffffffffffffffffffffffffff168273ffffffffffffffffffffffffffffffffffffffff1603612e045760006040517f64a0ae92000000000000000000000000000000000000000000000000000000008152600401612dfb919061329a565b60405180910390fd5b6000612e128383600061227b565b9050600073ffffffffffffffffffffffffffffffffffffffff168173ffffffffffffffffffffffffffffffffffffffff1614612e865760006040517f73c6ac6e000000000000000000000000000000000000000000000000000000008152600401612e7d919061329a565b60405180910390fd5b505050565b600080600090507a184f03e93ff9f4daa797ed6e38ed64bf6a1f0100000000000000008310612ee9577a184f03e93ff9f4daa797ed6e38ed64bf6a1f0100000000000000008381612edf57612ede613bce565b5b0492506040810190505b6d04ee2d6d415b85acef81000000008310612f26576d04ee2d6d415b85acef81000000008381612f1c57612f1b613bce565b5b0492506020810190505b662386f26fc100008310612f5557662386f26fc100008381612f4b57612f4a613bce565b5b0492506010810190505b6305f5e1008310612f7e576305f5e1008381612f7457612f73613bce565b5b0492506008810190505b6127108310612fa3576127108381612f9957612f98613bce565b5b0492506004810190505b60648310612fc65760648381612fbc57612fbb613bce565b5b0492506002810190505b600a8310612fd5576001810190505b80915050919050565b6040518061014001604052806000815260200160008152602001600081526020016000815260200160008152602001600015158152602001600073ffffffffffffffffffffffffffffffffffffffff168152602001600073ffffffffffffffffffffffffffffffffffffffff168152602001600073ffffffffffffffffffffffffffffffffffffffff168152602001606081525090565b6000604051905090565b600080fd5b600080fd5b60007fffffffff0000000000000000000000000000000000000000000000000000000082169050919050565b6130be81613089565b81146130c957600080fd5b50565b6000813590506130db816130b5565b92915050565b6000602082840312156130f7576130f661307f565b5b6000613105848285016130cc565b91505092915050565b60008115159050919050565b6131238161310e565b82525050565b600060208201905061313e600083018461311a565b92915050565b600081519050919050565b600082825260208201905092915050565b60005b8381101561317e578082015181840152602081019050613163565b60008484015250505050565b6000601f19601f8301169050919050565b60006131a682613144565b6131b0818561314f565b93506131c0818560208601613160565b6131c98161318a565b840191505092915050565b600060208201905081810360008301526131ee818461319b565b905092915050565b6000819050919050565b613209816131f6565b811461321457600080fd5b50565b60008135905061322681613200565b92915050565b6000602082840312156132425761324161307f565b5b600061325084828501613217565b91505092915050565b600073ffffffffffffffffffffffffffffffffffffffff82169050919050565b600061328482613259565b9050919050565b61329481613279565b82525050565b60006020820190506132af600083018461328b565b92915050565b6132be81613279565b81146132c957600080fd5b50565b6000813590506132db816132b5565b92915050565b600080604083850312156132f8576132f761307f565b5b6000613306858286016132cc565b925050602061331785828601613217565b9150509250929050565b60008060006060848603121561333a5761333961307f565b5b6000613348868287016132cc565b9350506020613359868287016132cc565b925050604061336a86828701613217565b9150509250925092565b61337d816131f6565b82525050565b61338c8161310e565b82525050565b600061339d82613259565b9050919050565b6133ad81613392565b82525050565b6133bc81613279565b82525050565b600082825260208201905092915050565b60006133de82613144565b6133e881856133c2565b93506133f8818560208601613160565b6134018161318a565b840191505092915050565b6000610140830160008301516134256000860182613374565b5060208301516134386020860182613374565b50604083015161344b6040860182613374565b50606083015161345e6060860182613374565b5060808301516134716080860182613374565b5060a083015161348460a0860182613383565b5060c083015161349760c08601826133a4565b5060e08301516134aa60e08601826133b3565b506101008301516134bf6101008601826133a4565b506101208301518482036101208601526134d982826133d3565b9150508091505092915050565b60006020820190508181036000830152613500818461340c565b905092915050565b60006020828403121561351e5761351d61307f565b5b600061352c848285016132cc565b91505092915050565b61353e816131f6565b82525050565b60006020820190506135596000830184613535565b92915050565b600081519050919050565b600082825260208201905092915050565b6000819050602082019050919050565b6000610140830160008301516135a46000860182613374565b5060208301516135b76020860182613374565b5060408301516135ca6040860182613374565b5060608301516135dd6060860182613374565b5060808301516135f06080860182613374565b5060a083015161360360a0860182613383565b5060c083015161361660c08601826133a4565b5060e083015161362960e08601826133b3565b5061010083015161363e6101008601826133a4565b5061012083015184820361012086015261365882826133d3565b9150508091505092915050565b6000613671838361358b565b905092915050565b6000602082019050919050565b60006136918261355f565b61369b818561356a565b9350836020820285016136ad8561357b565b8060005b858110156136e957848403895281516136ca8582613665565b94506136d583613679565b925060208a019950506001810190506136b1565b50829750879550505050505092915050565b600060208201905081810360008301526137158184613686565b905092915050565b6137268161310e565b811461373157600080fd5b50565b6000813590506137438161371d565b92915050565b600080604083850312156137605761375f61307f565b5b600061376e858286016132cc565b925050602061377f85828601613734565b9150509250929050565b600080fd5b600080fd5b7f4e487b7100000000000000000000000000000000000000000000000000000000600052604160045260246000fd5b6137cb8261318a565b810181811067ffffffffffffffff821117156137ea576137e9613793565b5b80604052505050565b60006137fd613075565b905061380982826137c2565b919050565b600067ffffffffffffffff82111561382957613828613793565b5b6138328261318a565b9050602081019050919050565b82818337600083830152505050565b600061386161385c8461380e565b6137f3565b90508281526020810184848401111561387d5761387c61378e565b5b61388884828561383f565b509392505050565b600082601f8301126138a5576138a4613789565b5b81356138b584826020860161384e565b91505092915050565b600080600080608085870312156138d8576138d761307f565b5b60006138e6878288016132cc565b94505060206138f7878288016132cc565b935050604061390887828801613217565b925050606085013567ffffffffffffffff81111561392957613928613084565b5b61393587828801613890565b91505092959194509250565b600067ffffffffffffffff82111561395c5761395b613793565b5b6139658261318a565b9050602081019050919050565b600061398561398084613941565b6137f3565b9050828152602081018484840111156139a1576139a061378e565b5b6139ac84828561383f565b509392505050565b600082601f8301126139c9576139c8613789565b5b81356139d9848260208601613972565b91505092915050565b6000806000606084860312156139fb576139fa61307f565b5b6000613a0986828701613217565b9350506020613a1a86828701613217565b925050604084013567ffffffffffffffff811115613a3b57613a3a613084565b5b613a47868287016139b4565b9150509250925092565b60008060408385031215613a6857613a6761307f565b5b6000613a76858286016132cc565b9250506020613a87858286016132cc565b9150509250929050565b7f4e487b7100000000000000000000000000000000000000000000000000000000600052602260045260246000fd5b60006002820490506001821680613ad857607f821691505b602082108103613aeb57613aea613a91565b5b50919050565b7f54686973206e6674206973206e6f74206c697374656400000000000000000000600082015250565b6000613b2760168361314f565b9150613b3282613af1565b602082019050919050565b60006020820190508181036000830152613b5681613b1a565b9050919050565b7f4e487b7100000000000000000000000000000000000000000000000000000000600052601160045260246000fd5b6000613b97826131f6565b9150613ba2836131f6565b9250828202613bb0816131f6565b91508282048414831517613bc757613bc6613b5d565b5b5092915050565b7f4e487b7100000000000000000000000000000000000000000000000000000000600052601260045260246000fd5b6000613c08826131f6565b9150613c13836131f6565b925082613c2357613c22613bce565b5b828204905092915050565b6000613c39826131f6565b9150613c44836131f6565b9250828203905081811115613c5c57613c5b613b5d565b5b92915050565b60008190508160005260206000209050919050565b60006020601f8301049050919050565b600082821b905092915050565b600060088302613cc47fffffffffffffffffffffffffffffffffffffffffffffffffffffffffffffffff82613c87565b613cce8683613c87565b95508019841693508086168417925050509392505050565b6000819050919050565b6000613d0b613d06613d01846131f6565b613ce6565b6131f6565b9050919050565b6000819050919050565b613d2583613cf0565b613d39613d3182613d12565b848454613c94565b825550505050565b600090565b613d4e613d41565b613d59818484613d1c565b505050565b5b81811015613d7d57613d72600082613d46565b600181019050613d5f565b5050565b601f821115613dc257613d9381613c62565b613d9c84613c77565b81016020851015613dab578190505b613dbf613db785613c77565b830182613d5e565b50505b505050565b600082821c905092915050565b6000613de560001984600802613dc7565b1980831691505092915050565b6000613dfe8383613dd4565b9150826002028217905092915050565b613e1782613144565b67ffffffffffffffff811115613e3057613e2f613793565b5b613e3a8254613ac0565b613e45828285613d81565b600060209050601f831160018114613e785760008415613e66578287015190505b613e708582613df2565b865550613ed8565b601f198416613e8686613c62565b60005b82811015613eae57848901518255600182019150602085019450602081019050613e89565b86831015613ecb5784890151613ec7601f891682613dd4565b8355505b6001600288020188555050505b505050505050565b6000606082019050613ef5600083018661328b565b613f026020830185613535565b613f0f604083018461328b565b949350505050565b7f5468652073656c6563746564206e667420697320616c7265616479206c69737460008201527f6564000000000000000000000000000000000000000000000000000000000000602082015250565b6000613f7360228361314f565b9150613f7e82613f17565b604082019050919050565b60006020820190508181036000830152613fa281613f66565b9050919050565b7f546865206c697374696e672066656520697320302e3030312065746865720000600082015250565b6000613fdf601e8361314f565b9150613fea82613fa9565b602082019050919050565b6000602082019050818103600083015261400e81613fd2565b9050919050565b7f6f6e6c79206f776e65722063616e2072656c69737420746865206e6674000000600082015250565b600061404b601d8361314f565b915061405682614015565b602082019050919050565b6000602082019050818103600083015261407a8161403e565b9050919050565b7f55204d757374205061792047726561746572205468616e2050726576696f757360008201527f2042696400000000000000000000000000000000000000000000000000000000602082015250565b60006140dd60248361314f565b91506140e882614081565b604082019050919050565b6000602082019050818103600083015261410c816140d0565b9050919050565b7f5468652073656c6563746564206e6674206973206e6f74206c69737465640000600082015250565b6000614149601e8361314f565b915061415482614113565b602082019050919050565b600060208201905081810360008301526141788161413c565b9050919050565b7f4e487b7100000000000000000000000000000000000000000000000000000000600052603260045260246000fd5b7f726f79616c74792070657263656e742063616e74206265206d6f72652074686160008201527f6e20666966747900000000000000000000000000000000000000000000000000602082015250565b600061420a60278361314f565b9150614215826141ae565b604082019050919050565b60006020820190508181036000830152614239816141fd565b9050919050565b7f5374617274207072696365206d7573742062652061746c6561737420302e303060008201527f3220657468000000000000000000000000000000000000000000000000000000602082015250565b600061429c60258361314f565b91506142a782614240565b604082019050919050565b600060208201905081810360008301526142cb8161428f565b9050919050565b60006142dd826131f6565b91507fffffffffffffffffffffffffffffffffffffffffffffffffffffffffffffffff820361430f5761430e613b5d565b5b600182019050919050565b600081905092915050565b600061433082613144565b61433a818561431a565b935061434a818560208601613160565b80840191505092915050565b60006143628285614325565b915061436e8284614325565b91508190509392505050565b600081519050919050565b600082825260208201905092915050565b60006143a18261437a565b6143ab8185614385565b93506143bb818560208601613160565b6143c48161318a565b840191505092915050565b60006080820190506143e4600083018761328b565b6143f1602083018661328b565b6143fe6040830185613535565b81810360608301526144108184614396565b905095945050505050565b60008151905061442a816130b5565b92915050565b6000602082840312156144465761444561307f565b5b60006144548482850161441b565b91505092915050565b6000604082019050614472600083018561328b565b61447f6020830184613535565b939250505056fea264697066735822122094ce3c3bce4c085eee691bff7a134f724a68cdd302c387438d76451904d57cdf64736f6c634300081b0033",
  "linkReferences": {},
  "deployedLinkReferences": {}
}