{
  "_format": "hh-sol-artifact-1",
  "contractName": "NFTMARKETPLACE",
  "sourceName": "contracts/NFTMARKET.sol",
  "abi": [
    {
      "inputs": [],
      "stateMutability": "nonpayable",
      "type": "constructor"
    },
    {
      "inputs": [
        {
          "internalType": "address",
          "name": "sender",
          "type": "address"
        },
        {
          "internalType": "uint256",
          "name": "tokenId",
          "type": "uint256"
        },
        {
          "internalType": "address",
          "name": "owner",
          "type": "address"
        }
      ],
      "name": "ERC721IncorrectOwner",
      "type": "error"
    },
    {
      "inputs": [
        {
          "internalType": "address",
          "name": "operator",
          "type": "address"
        },
        {
          "internalType": "uint256",
          "name": "tokenId",
          "type": "uint256"
        }
      ],
      "name": "ERC721InsufficientApproval",
      "type": "error"
    },
    {
      "inputs": [
        {
          "internalType": "address",
          "name": "approver",
          "type": "address"
        }
      ],
      "name": "ERC721InvalidApprover",
      "type": "error"
    },
    {
      "inputs": [
        {
          "internalType": "address",
          "name": "operator",
          "type": "address"
        }
      ],
      "name": "ERC721InvalidOperator",
      "type": "error"
    },
    {
      "inputs": [
        {
          "internalType": "address",
          "name": "owner",
          "type": "address"
        }
      ],
      "name": "ERC721InvalidOwner",
      "type": "error"
    },
    {
      "inputs": [
        {
          "internalType": "address",
          "name": "receiver",
          "type": "address"
        }
      ],
      "name": "ERC721InvalidReceiver",
      "type": "error"
    },
    {
      "inputs": [
        {
          "internalType": "address",
          "name": "sender",
          "type": "address"
        }
      ],
      "name": "ERC721InvalidSender",
      "type": "error"
    },
    {
      "inputs": [
        {
          "internalType": "uint256",
          "name": "tokenId",
          "type": "uint256"
        }
      ],
      "name": "ERC721NonexistentToken",
      "type": "error"
    },
    {
      "anonymous": false,
      "inputs": [
        {
          "indexed": true,
          "internalType": "address",
          "name": "owner",
          "type": "address"
        },
        {
          "indexed": true,
          "internalType": "address",
          "name": "approved",
          "type": "address"
        },
        {
          "indexed": true,
          "internalType": "uint256",
          "name": "tokenId",
          "type": "uint256"
        }
      ],
      "name": "Approval",
      "type": "event"
    },
    {
      "anonymous": false,
      "inputs": [
        {
          "indexed": true,
          "internalType": "address",
          "name": "owner",
          "type": "address"
        },
        {
          "indexed": true,
          "internalType": "address",
          "name": "operator",
          "type": "address"
        },
        {
          "indexed": false,
          "internalType": "bool",
          "name": "approved",
          "type": "bool"
        }
      ],
      "name": "ApprovalForAll",
      "type": "event"
    },
    {
      "anonymous": false,
      "inputs": [
        {
          "indexed": false,
          "internalType": "uint256",
          "name": "_fromTokenId",
          "type": "uint256"
        },
        {
          "indexed": false,
          "internalType": "uint256",
          "name": "_toTokenId",
          "type": "uint256"
        }
      ],
      "name": "BatchMetadataUpdate",
      "type": "event"
    },
    {
      "anonymous": false,
      "inputs": [
        {
          "indexed": false,
          "internalType": "uint256",
          "name": "_tokenId",
          "type": "uint256"
        }
      ],
      "name": "MetadataUpdate",
      "type": "event"
    },
    {
      "anonymous": false,
      "inputs": [
        {
          "indexed": true,
          "internalType": "address",
          "name": "from",
          "type": "address"
        },
        {
          "indexed": true,
          "internalType": "address",
          "name": "to",
          "type": "address"
        },
        {
          "indexed": true,
          "internalType": "uint256",
          "name": "tokenId",
          "type": "uint256"
        }
      ],
      "name": "Transfer",
      "type": "event"
    },
    {
      "inputs": [
        {
          "internalType": "address",
          "name": "to",
          "type": "address"
        },
        {
          "internalType": "uint256",
          "name": "tokenId",
          "type": "uint256"
        }
      ],
      "name": "approve",
      "outputs": [],
      "stateMutability": "nonpayable",
      "type": "function"
    },
    {
      "inputs": [
        {
          "internalType": "address",
          "name": "owner",
          "type": "address"
        }
      ],
      "name": "balanceOf",
      "outputs": [
        {
          "internalType": "uint256",
          "name": "",
          "type": "uint256"
        }
      ],
      "stateMutability": "view",
      "type": "function"
    },
    {
      "inputs": [
        {
          "internalType": "uint256",
          "name": "_tokenId",
          "type": "uint256"
        }
      ],
      "name": "buyNft",
      "outputs": [],
      "stateMutability": "payable",
      "type": "function"
    },
    {
      "inputs": [
        {
          "internalType": "string",
          "name": "_tokenURI",
          "type": "string"
        },
        {
          "internalType": "uint256",
          "name": "_price",
          "type": "uint256"
        },
        {
          "internalType": "uint256",
          "name": "_royalties",
          "type": "uint256"
        }
      ],
      "name": "createToken",
      "outputs": [
        {
          "internalType": "uint256",
          "name": "",
          "type": "uint256"
        }
      ],
      "stateMutability": "nonpayable",
      "type": "function"
    },
    {
      "inputs": [
        {
          "internalType": "uint256",
          "name": "_tokenId",
          "type": "uint256"
        }
      ],
      "name": "getANft",
      "outputs": [
        {
          "components": [
            {
              "internalType": "uint256",
              "name": "tokenId",
              "type": "uint256"
            },
            {
              "internalType": "address payable",
              "name": "originalMinter",
              "type": "address"
            },
            {
              "internalType": "address payable",
              "name": "owner",
              "type": "address"
            },
            {
              "internalType": "uint256",
              "name": "currentBid",
              "type": "uint256"
            },
            {
              "internalType": "uint256",
              "name": "royaltiesPercentage",
              "type": "uint256"
            },
            {
              "internalType": "bool",
              "name": "isListed",
              "type": "bool"
            }
          ],
          "internalType": "struct NFTMARKETPLACE.NFTListing",
          "name": "",
          "type": "tuple"
        }
      ],
      "stateMutability": "view",
      "type": "function"
    },
    {
      "inputs": [],
      "name": "getAllListedNfts",
      "outputs": [
        {
          "components": [
            {
              "internalType": "uint256",
              "name": "tokenId",
              "type": "uint256"
            },
            {
              "internalType": "address payable",
              "name": "originalMinter",
              "type": "address"
            },
            {
              "internalType": "address payable",
              "name": "owner",
              "type": "address"
            },
            {
              "internalType": "uint256",
              "name": "currentBid",
              "type": "uint256"
            },
            {
              "internalType": "uint256",
              "name": "royaltiesPercentage",
              "type": "uint256"
            },
            {
              "internalType": "bool",
              "name": "isListed",
              "type": "bool"
            }
          ],
          "internalType": "struct NFTMARKETPLACE.NFTListing[]",
          "name": "",
          "type": "tuple[]"
        }
      ],
      "stateMutability": "view",
      "type": "function"
    },
    {
      "inputs": [
        {
          "internalType": "uint256",
          "name": "tokenId",
          "type": "uint256"
        }
      ],
      "name": "getApproved",
      "outputs": [
        {
          "internalType": "address",
          "name": "",
          "type": "address"
        }
      ],
      "stateMutability": "view",
      "type": "function"
    },
    {
      "inputs": [],
      "name": "getMyNfts",
      "outputs": [
        {
          "components": [
            {
              "internalType": "uint256",
              "name": "tokenId",
              "type": "uint256"
            },
            {
              "internalType": "address payable",
              "name": "originalMinter",
              "type": "address"
            },
            {
              "internalType": "address payable",
              "name": "owner",
              "type": "address"
            },
            {
              "internalType": "uint256",
              "name": "currentBid",
              "type": "uint256"
            },
            {
              "internalType": "uint256",
              "name": "royaltiesPercentage",
              "type": "uint256"
            },
            {
              "internalType": "bool",
              "name": "isListed",
              "type": "bool"
            }
          ],
          "internalType": "struct NFTMARKETPLACE.NFTListing[]",
          "name": "",
          "type": "tuple[]"
        }
      ],
      "stateMutability": "view",
      "type": "function"
    },
    {
      "inputs": [
        {
          "internalType": "address",
          "name": "owner",
          "type": "address"
        },
        {
          "internalType": "address",
          "name": "operator",
          "type": "address"
        }
      ],
      "name": "isApprovedForAll",
      "outputs": [
        {
          "internalType": "bool",
          "name": "",
          "type": "bool"
        }
      ],
      "stateMutability": "view",
      "type": "function"
    },
    {
      "inputs": [],
      "name": "marketPlaceOwner",
      "outputs": [
        {
          "internalType": "address payable",
          "name": "",
          "type": "address"
        }
      ],
      "stateMutability": "view",
      "type": "function"
    },
    {
      "inputs": [],
      "name": "name",
      "outputs": [
        {
          "internalType": "string",
          "name": "",
          "type": "string"
        }
      ],
      "stateMutability": "view",
      "type": "function"
    },
    {
      "inputs": [
        {
          "internalType": "uint256",
          "name": "tokenId",
          "type": "uint256"
        }
      ],
      "name": "ownerOf",
      "outputs": [
        {
          "internalType": "address",
          "name": "",
          "type": "address"
        }
      ],
      "stateMutability": "view",
      "type": "function"
    },
    {
      "inputs": [
        {
          "internalType": "uint256",
          "name": "_nftTokenId",
          "type": "uint256"
        },
        {
          "internalType": "uint256",
          "name": "_newPrice",
          "type": "uint256"
        }
      ],
      "name": "reListNft",
      "outputs": [],
      "stateMutability": "nonpayable",
      "type": "function"
    },
    {
      "inputs": [
        {
          "internalType": "address",
          "name": "from",
          "type": "address"
        },
        {
          "internalType": "address",
          "name": "to",
          "type": "address"
        },
        {
          "internalType": "uint256",
          "name": "tokenId",
          "type": "uint256"
        }
      ],
      "name": "safeTransferFrom",
      "outputs": [],
      "stateMutability": "nonpayable",
      "type": "function"
    },
    {
      "inputs": [
        {
          "internalType": "address",
          "name": "from",
          "type": "address"
        },
        {
          "internalType": "address",
          "name": "to",
          "type": "address"
        },
        {
          "internalType": "uint256",
          "name": "tokenId",
          "type": "uint256"
        },
        {
          "internalType": "bytes",
          "name": "data",
          "type": "bytes"
        }
      ],
      "name": "safeTransferFrom",
      "outputs": [],
      "stateMutability": "nonpayable",
      "type": "function"
    },
    {
      "inputs": [
        {
          "internalType": "address",
          "name": "operator",
          "type": "address"
        },
        {
          "internalType": "bool",
          "name": "approved",
          "type": "bool"
        }
      ],
      "name": "setApprovalForAll",
      "outputs": [],
      "stateMutability": "nonpayable",
      "type": "function"
    },
    {
      "inputs": [
        {
          "internalType": "bytes4",
          "name": "interfaceId",
          "type": "bytes4"
        }
      ],
      "name": "supportsInterface",
      "outputs": [
        {
          "internalType": "bool",
          "name": "",
          "type": "bool"
        }
      ],
      "stateMutability": "view",
      "type": "function"
    },
    {
      "inputs": [],
      "name": "symbol",
      "outputs": [
        {
          "internalType": "string",
          "name": "",
          "type": "string"
        }
      ],
      "stateMutability": "view",
      "type": "function"
    },
    {
      "inputs": [
        {
          "internalType": "uint256",
          "name": "tokenId",
          "type": "uint256"
        }
      ],
      "name": "tokenURI",
      "outputs": [
        {
          "internalType": "string",
          "name": "",
          "type": "string"
        }
      ],
      "stateMutability": "view",
      "type": "function"
    },
    {
      "inputs": [
        {
          "internalType": "address",
          "name": "from",
          "type": "address"
        },
        {
          "internalType": "address",
          "name": "to",
          "type": "address"
        },
        {
          "internalType": "uint256",
          "name": "tokenId",
          "type": "uint256"
        }
      ],
      "name": "transferFrom",
      "outputs": [],
      "stateMutability": "nonpayable",
      "type": "function"
    }
  ],
  "bytecode": "0x608060405266038d7ea4c6800060085534801561001b57600080fd5b506040518060400160405280600e81526020017f4e46544d41524b4554504c4143450000000000000000000000000000000000008152506040518060400160405280600481526020017f4e4654530000000000000000000000000000000000000000000000000000000081525081600090816100979190610340565b5080600190816100a79190610340565b50505033600760006101000a81548173ffffffffffffffffffffffffffffffffffffffff021916908373ffffffffffffffffffffffffffffffffffffffff160217905550610412565b600081519050919050565b7f4e487b7100000000000000000000000000000000000000000000000000000000600052604160045260246000fd5b7f4e487b7100000000000000000000000000000000000000000000000000000000600052602260045260246000fd5b6000600282049050600182168061017157607f821691505b6020821081036101845761018361012a565b5b50919050565b60008190508160005260206000209050919050565b60006020601f8301049050919050565b600082821b905092915050565b6000600883026101ec7fffffffffffffffffffffffffffffffffffffffffffffffffffffffffffffffff826101af565b6101f686836101af565b95508019841693508086168417925050509392505050565b6000819050919050565b6000819050919050565b600061023d6102386102338461020e565b610218565b61020e565b9050919050565b6000819050919050565b61025783610222565b61026b61026382610244565b8484546101bc565b825550505050565b600090565b610280610273565b61028b81848461024e565b505050565b5b818110156102af576102a4600082610278565b600181019050610291565b5050565b601f8211156102f4576102c58161018a565b6102ce8461019f565b810160208510156102dd578190505b6102f16102e98561019f565b830182610290565b50505b505050565b600082821c905092915050565b6000610317600019846008026102f9565b1980831691505092915050565b60006103308383610306565b9150826002028217905092915050565b610349826100f0565b67ffffffffffffffff811115610362576103616100fb565b5b61036c8254610159565b6103778282856102b3565b600060209050601f8311600181146103aa5760008415610398578287015190505b6103a28582610324565b86555061040a565b601f1984166103b88661018a565b60005b828110156103e0578489015182556001820191506020850194506020810190506103bb565b868310156103fd57848901516103f9601f891682610306565b8355505b6001600288020188555050505b505050505050565b6139fe806104216000396000f3fe60806040526004361061011f5760003560e01c806370a08231116100a0578063ab92a96711610064578063ab92a967146103ec578063b88d4fde14610415578063bec2a7c51461043e578063c87b56dd1461047b578063e985e9c5146104b85761011f565b806370a082311461030557806395ce4a3b1461034257806395d89b411461036d57806397c37af514610398578063a22cb465146103c35761011f565b806323b872dd116100e757806323b872dd1461021d578063243adbdd1461024657806324b89db71461026257806342842e0e1461029f5780636352211e146102c85761011f565b806301ffc9a714610124578063047b07bf1461016157806306fdde031461018c578063081812fc146101b7578063095ea7b3146101f4575b600080fd5b34801561013057600080fd5b5061014b6004803603810190610146919061280e565b6104f5565b6040516101589190612856565b60405180910390f35b34801561016d57600080fd5b50610176610556565b6040516101839190612a04565b60405180910390f35b34801561019857600080fd5b506101a1610849565b6040516101ae9190612ab6565b60405180910390f35b3480156101c357600080fd5b506101de60048036038101906101d99190612b04565b6108db565b6040516101eb9190612b52565b60405180910390f35b34801561020057600080fd5b5061021b60048036038101906102169190612b99565b6108f7565b005b34801561022957600080fd5b50610244600480360381019061023f9190612bd9565b61090d565b005b610260600480360381019061025b9190612b04565b610a0f565b005b34801561026e57600080fd5b5061028960048036038101906102849190612b04565b610c99565b6040516102969190612ca7565b60405180910390f35b3480156102ab57600080fd5b506102c660048036038101906102c19190612bd9565b610dab565b005b3480156102d457600080fd5b506102ef60048036038101906102ea9190612b04565b610dcb565b6040516102fc9190612b52565b60405180910390f35b34801561031157600080fd5b5061032c60048036038101906103279190612cc2565b610ddd565b6040516103399190612cfe565b60405180910390f35b34801561034e57600080fd5b50610357610e97565b6040516103649190612a04565b60405180910390f35b34801561037957600080fd5b506103826110d5565b60405161038f9190612ab6565b60405180910390f35b3480156103a457600080fd5b506103ad611167565b6040516103ba9190612d28565b60405180910390f35b3480156103cf57600080fd5b506103ea60048036038101906103e59190612d6f565b61118d565b005b3480156103f857600080fd5b50610413600480360381019061040e9190612daf565b6111a3565b005b34801561042157600080fd5b5061043c60048036038101906104379190612f24565b6112c1565b005b34801561044a57600080fd5b5061046560048036038101906104609190613048565b6112e6565b6040516104729190612cfe565b60405180910390f35b34801561048757600080fd5b506104a2600480360381019061049d9190612b04565b61137a565b6040516104af9190612ab6565b60405180910390f35b3480156104c457600080fd5b506104df60048036038101906104da91906130b7565b61148d565b6040516104ec9190612856565b60405180910390f35b6000634906490660e01b7bffffffffffffffffffffffffffffffffffffffffffffffffffffffff1916827bffffffffffffffffffffffffffffffffffffffffffffffffffffffff1916148061054f575061054e82611521565b5b9050919050565b6060600080600090505b6009548110156105ef573373ffffffffffffffffffffffffffffffffffffffff16600b600083815260200190815260200160002060020160009054906101000a900473ffffffffffffffffffffffffffffffffffffffff1673ffffffffffffffffffffffffffffffffffffffff16036105e25781806105de90613126565b9250505b8080600101915050610560565b5060008111610633576040517f08c379a000000000000000000000000000000000000000000000000000000000815260040161062a906131ba565b60405180910390fd5b60008167ffffffffffffffff81111561064f5761064e612df9565b5b60405190808252806020026020018201604052801561068857816020015b61067561273e565b81526020019060019003908161066d5790505b5090506000805b60095481101561083f573373ffffffffffffffffffffffffffffffffffffffff16600b600083815260200190815260200160002060020160009054906101000a900473ffffffffffffffffffffffffffffffffffffffff1673ffffffffffffffffffffffffffffffffffffffff160361083257600b60008281526020019081526020016000206040518060c0016040529081600082015481526020016001820160009054906101000a900473ffffffffffffffffffffffffffffffffffffffff1673ffffffffffffffffffffffffffffffffffffffff1673ffffffffffffffffffffffffffffffffffffffff1681526020016002820160009054906101000a900473ffffffffffffffffffffffffffffffffffffffff1673ffffffffffffffffffffffffffffffffffffffff1673ffffffffffffffffffffffffffffffffffffffff16815260200160038201548152602001600482015481526020016005820160009054906101000a900460ff161515151581525050838381518110610818576108176131da565b5b6020026020010181905250818061082e90613126565b9250505b808060010191505061068f565b5081935050505090565b60606000805461085890613238565b80601f016020809104026020016040519081016040528092919081815260200182805461088490613238565b80156108d15780601f106108a6576101008083540402835291602001916108d1565b820191906000526020600020905b8154815290600101906020018083116108b457829003601f168201915b5050505050905090565b60006108e682611603565b506108f08261168b565b9050919050565b61090982826109046116c8565b6116d0565b5050565b600073ffffffffffffffffffffffffffffffffffffffff168273ffffffffffffffffffffffffffffffffffffffff160361097f5760006040517f64a0ae920000000000000000000000000000000000000000000000000000000081526004016109769190612b52565b60405180910390fd5b6000610993838361098e6116c8565b6116e2565b90508373ffffffffffffffffffffffffffffffffffffffff168173ffffffffffffffffffffffffffffffffffffffff1614610a09578382826040517f64283d7b000000000000000000000000000000000000000000000000000000008152600401610a0093929190613269565b60405180910390fd5b50505050565b6000600b6000838152602001908152602001600020905080600301543414610a6c576040517f08c379a0000000000000000000000000000000000000000000000000000000008152600401610a63906132ec565b60405180910390fd5b610a9b8160020160009054906101000a900473ffffffffffffffffffffffffffffffffffffffff1633846118fc565b600760009054906101000a900473ffffffffffffffffffffffffffffffffffffffff1673ffffffffffffffffffffffffffffffffffffffff166108fc6008549081150290604051600060405180830381858888f19350505050158015610b05573d6000803e3d6000fd5b506000606482600301548360040154610b1e919061330c565b610b28919061337d565b90508160010160009054906101000a900473ffffffffffffffffffffffffffffffffffffffff1673ffffffffffffffffffffffffffffffffffffffff166108fc829081150290604051600060405180830381858888f19350505050158015610b94573d6000803e3d6000fd5b508160020160009054906101000a900473ffffffffffffffffffffffffffffffffffffffff1673ffffffffffffffffffffffffffffffffffffffff166108fc826008548560030154610be691906133ae565b610bf091906133ae565b9081150290604051600060405180830381858888f19350505050158015610c1b573d6000803e3d6000fd5b50338260020160006101000a81548173ffffffffffffffffffffffffffffffffffffffff021916908373ffffffffffffffffffffffffffffffffffffffff16021790555060008260050160006101000a81548160ff021916908315150217905550600a6000815480929190610c8f90613126565b9190505550505050565b610ca161273e565b600b60008381526020019081526020016000206040518060c0016040529081600082015481526020016001820160009054906101000a900473ffffffffffffffffffffffffffffffffffffffff1673ffffffffffffffffffffffffffffffffffffffff1673ffffffffffffffffffffffffffffffffffffffff1681526020016002820160009054906101000a900473ffffffffffffffffffffffffffffffffffffffff1673ffffffffffffffffffffffffffffffffffffffff1673ffffffffffffffffffffffffffffffffffffffff16815260200160038201548152602001600482015481526020016005820160009054906101000a900460ff1615151515815250509050919050565b610dc6838383604051806020016040528060008152506112c1565b505050565b6000610dd682611603565b9050919050565b60008073ffffffffffffffffffffffffffffffffffffffff168273ffffffffffffffffffffffffffffffffffffffff1603610e505760006040517f89c62b64000000000000000000000000000000000000000000000000000000008152600401610e479190612b52565b60405180910390fd5b600360008373ffffffffffffffffffffffffffffffffffffffff1673ffffffffffffffffffffffffffffffffffffffff168152602001908152602001600020549050919050565b6060600080600090505b600954811015610ef65760011515600b600083815260200190815260200160002060050160009054906101000a900460ff16151503610ee9578180610ee590613126565b9250505b8080600101915050610ea1565b5060008167ffffffffffffffff811115610f1357610f12612df9565b5b604051908082528060200260200182016040528015610f4c57816020015b610f3961273e565b815260200190600190039081610f315790505b509050600080600090505b838110156110cb5760011515600b600083815260200190815260200160002060050160009054906101000a900460ff161515036110be57600b60008281526020019081526020016000206040518060c0016040529081600082015481526020016001820160009054906101000a900473ffffffffffffffffffffffffffffffffffffffff1673ffffffffffffffffffffffffffffffffffffffff1673ffffffffffffffffffffffffffffffffffffffff1681526020016002820160009054906101000a900473ffffffffffffffffffffffffffffffffffffffff1673ffffffffffffffffffffffffffffffffffffffff1673ffffffffffffffffffffffffffffffffffffffff16815260200160038201548152602001600482015481526020016005820160009054906101000a900460ff1615151515815250508383815181106110a4576110a36131da565b5b602002602001018190525081806110ba90613126565b9250505b8080600101915050610f57565b5081935050505090565b6060600180546110e490613238565b80601f016020809104026020016040519081016040528092919081815260200182805461111090613238565b801561115d5780601f106111325761010080835404028352916020019161115d565b820191906000526020600020905b81548152906001019060200180831161114057829003601f168201915b5050505050905090565b600760009054906101000a900473ffffffffffffffffffffffffffffffffffffffff1681565b61119f6111986116c8565b8383611a69565b5050565b6000600b600084815260200190815260200160002090503373ffffffffffffffffffffffffffffffffffffffff168160020160009054906101000a900473ffffffffffffffffffffffffffffffffffffffff1673ffffffffffffffffffffffffffffffffffffffff161461124c576040517f08c379a00000000000000000000000000000000000000000000000000000000081526004016112439061342e565b60405180910390fd5b66071afd498d0000821015611296576040517f08c379a000000000000000000000000000000000000000000000000000000000815260040161128d906134c0565b60405180910390fd5b81816003018190555060018160050160006101000a81548160ff021916908315150217905550505050565b6112cc84848461090d565b6112e06112d76116c8565b85858585611bd8565b50505050565b600066071afd498d00008311611331576040517f08c379a000000000000000000000000000000000000000000000000000000000815260040161132890613552565b60405180910390fd5b600060095490506113423382611d89565b61134c8186611da7565b611357818585611e03565b6009600081548092919061136a90613126565b9190505550809150509392505050565b606061138582611603565b5060006006600084815260200190815260200160002080546113a690613238565b80601f01602080910402602001604051908101604052809291908181526020018280546113d290613238565b801561141f5780601f106113f45761010080835404028352916020019161141f565b820191906000526020600020905b81548152906001019060200180831161140257829003601f168201915b505050505090506000611430611f8f565b90506000815103611445578192505050611488565b60008251111561147a5780826040516020016114629291906135ae565b60405160208183030381529060405292505050611488565b61148384611fa6565b925050505b919050565b6000600560008473ffffffffffffffffffffffffffffffffffffffff1673ffffffffffffffffffffffffffffffffffffffff16815260200190815260200160002060008373ffffffffffffffffffffffffffffffffffffffff1673ffffffffffffffffffffffffffffffffffffffff16815260200190815260200160002060009054906101000a900460ff16905092915050565b60007f80ac58cd000000000000000000000000000000000000000000000000000000007bffffffffffffffffffffffffffffffffffffffffffffffffffffffff1916827bffffffffffffffffffffffffffffffffffffffffffffffffffffffff191614806115ec57507f5b5e139f000000000000000000000000000000000000000000000000000000007bffffffffffffffffffffffffffffffffffffffffffffffffffffffff1916827bffffffffffffffffffffffffffffffffffffffffffffffffffffffff1916145b806115fc57506115fb8261200f565b5b9050919050565b60008061160f83612079565b9050600073ffffffffffffffffffffffffffffffffffffffff168173ffffffffffffffffffffffffffffffffffffffff160361168257826040517f7e2732890000000000000000000000000000000000000000000000000000000081526004016116799190612cfe565b60405180910390fd5b80915050919050565b60006004600083815260200190815260200160002060009054906101000a900473ffffffffffffffffffffffffffffffffffffffff169050919050565b600033905090565b6116dd83838360016120b6565b505050565b6000806116ee84612079565b9050600073ffffffffffffffffffffffffffffffffffffffff168373ffffffffffffffffffffffffffffffffffffffff16146117305761172f81848661227b565b5b600073ffffffffffffffffffffffffffffffffffffffff168173ffffffffffffffffffffffffffffffffffffffff16146117c1576117726000856000806120b6565b6001600360008373ffffffffffffffffffffffffffffffffffffffff1673ffffffffffffffffffffffffffffffffffffffff168152602001908152602001600020600082825403925050819055505b600073ffffffffffffffffffffffffffffffffffffffff168573ffffffffffffffffffffffffffffffffffffffff1614611844576001600360008773ffffffffffffffffffffffffffffffffffffffff1673ffffffffffffffffffffffffffffffffffffffff168152602001908152602001600020600082825401925050819055505b846002600086815260200190815260200160002060006101000a81548173ffffffffffffffffffffffffffffffffffffffff021916908373ffffffffffffffffffffffffffffffffffffffff160217905550838573ffffffffffffffffffffffffffffffffffffffff168273ffffffffffffffffffffffffffffffffffffffff167fddf252ad1be2c89b69c2b068fc378daa952ba7f163c4a11628f55a4df523b3ef60405160405180910390a4809150509392505050565b600073ffffffffffffffffffffffffffffffffffffffff168273ffffffffffffffffffffffffffffffffffffffff160361196e5760006040517f64a0ae920000000000000000000000000000000000000000000000000000000081526004016119659190612b52565b60405180910390fd5b600061197c838360006116e2565b9050600073ffffffffffffffffffffffffffffffffffffffff168173ffffffffffffffffffffffffffffffffffffffff16036119ef57816040517f7e2732890000000000000000000000000000000000000000000000000000000081526004016119e69190612cfe565b60405180910390fd5b8373ffffffffffffffffffffffffffffffffffffffff168173ffffffffffffffffffffffffffffffffffffffff1614611a63578382826040517f64283d7b000000000000000000000000000000000000000000000000000000008152600401611a5a93929190613269565b60405180910390fd5b50505050565b600073ffffffffffffffffffffffffffffffffffffffff168273ffffffffffffffffffffffffffffffffffffffff1603611ada57816040517f5b08ba18000000000000000000000000000000000000000000000000000000008152600401611ad19190612b52565b60405180910390fd5b80600560008573ffffffffffffffffffffffffffffffffffffffff1673ffffffffffffffffffffffffffffffffffffffff16815260200190815260200160002060008473ffffffffffffffffffffffffffffffffffffffff1673ffffffffffffffffffffffffffffffffffffffff16815260200190815260200160002060006101000a81548160ff0219169083151502179055508173ffffffffffffffffffffffffffffffffffffffff168373ffffffffffffffffffffffffffffffffffffffff167f17307eab39ab6107e8899845ad3d59bd9653f200f220920489ca2b5937696c3183604051611bcb9190612856565b60405180910390a3505050565b60008373ffffffffffffffffffffffffffffffffffffffff163b1115611d82578273ffffffffffffffffffffffffffffffffffffffff1663150b7a02868685856040518563ffffffff1660e01b8152600401611c379493929190613627565b6020604051808303816000875af1925050508015611c7357506040513d601f19601f82011682018060405250810190611c709190613688565b60015b611cf7573d8060008114611ca3576040519150601f19603f3d011682016040523d82523d6000602084013e611ca8565b606091505b506000815103611cef57836040517f64a0ae92000000000000000000000000000000000000000000000000000000008152600401611ce69190612b52565b60405180910390fd5b805181602001fd5b63150b7a0260e01b7bffffffffffffffffffffffffffffffffffffffffffffffffffffffff1916817bffffffffffffffffffffffffffffffffffffffffffffffffffffffff191614611d8057836040517f64a0ae92000000000000000000000000000000000000000000000000000000008152600401611d779190612b52565b60405180910390fd5b505b5050505050565b611da382826040518060200160405280600081525061233f565b5050565b80600660008481526020019081526020016000209081611dc79190613861565b507ff8e1a15aba9398e019f0b49df1a4fde98ee17ae345cb5f6b5e2c27f5033e8ce782604051611df79190612cfe565b60405180910390a15050565b60318110611e46576040517f08c379a0000000000000000000000000000000000000000000000000000000008152600401611e3d9061397f565b60405180910390fd5b60006040518060c001604052808581526020013373ffffffffffffffffffffffffffffffffffffffff1681526020013373ffffffffffffffffffffffffffffffffffffffff16815260200184815260200183815260200160011515815250905080600b60008681526020019081526020016000206000820151816000015560208201518160010160006101000a81548173ffffffffffffffffffffffffffffffffffffffff021916908373ffffffffffffffffffffffffffffffffffffffff16021790555060408201518160020160006101000a81548173ffffffffffffffffffffffffffffffffffffffff021916908373ffffffffffffffffffffffffffffffffffffffff160217905550606082015181600301556080820151816004015560a08201518160050160006101000a81548160ff02191690831515021790555090505050505050565b606060405180602001604052806000815250905090565b6060611fb182611603565b506000611fbc611f8f565b90506000815111611fdc5760405180602001604052806000815250612007565b80611fe684612363565b604051602001611ff79291906135ae565b6040516020818303038152906040525b915050919050565b60007f01ffc9a7000000000000000000000000000000000000000000000000000000007bffffffffffffffffffffffffffffffffffffffffffffffffffffffff1916827bffffffffffffffffffffffffffffffffffffffffffffffffffffffff1916149050919050565b60006002600083815260200190815260200160002060009054906101000a900473ffffffffffffffffffffffffffffffffffffffff169050919050565b80806120ef5750600073ffffffffffffffffffffffffffffffffffffffff168273ffffffffffffffffffffffffffffffffffffffff1614155b156122235760006120ff84611603565b9050600073ffffffffffffffffffffffffffffffffffffffff168373ffffffffffffffffffffffffffffffffffffffff161415801561216a57508273ffffffffffffffffffffffffffffffffffffffff168173ffffffffffffffffffffffffffffffffffffffff1614155b801561217d575061217b818461148d565b155b156121bf57826040517fa9fbf51f0000000000000000000000000000000000000000000000000000000081526004016121b69190612b52565b60405180910390fd5b811561222157838573ffffffffffffffffffffffffffffffffffffffff168273ffffffffffffffffffffffffffffffffffffffff167f8c5be1e5ebec7d5bd14f71427d1e84f3dd0314c0f7b2291e5b200ac8c7c3b92560405160405180910390a45b505b836004600085815260200190815260200160002060006101000a81548173ffffffffffffffffffffffffffffffffffffffff021916908373ffffffffffffffffffffffffffffffffffffffff16021790555050505050565b612286838383612431565b61233a57600073ffffffffffffffffffffffffffffffffffffffff168373ffffffffffffffffffffffffffffffffffffffff16036122fb57806040517f7e2732890000000000000000000000000000000000000000000000000000000081526004016122f29190612cfe565b60405180910390fd5b81816040517f177e802f00000000000000000000000000000000000000000000000000000000815260040161233192919061399f565b60405180910390fd5b505050565b61234983836124f2565b61235e6123546116c8565b6000858585611bd8565b505050565b606060006001612372846125eb565b01905060008167ffffffffffffffff81111561239157612390612df9565b5b6040519080825280601f01601f1916602001820160405280156123c35781602001600182028036833780820191505090505b509050600082602001820190505b600115612426578080600190039150507f3031323334353637383961626364656600000000000000000000000000000000600a86061a8153600a858161241a5761241961334e565b5b049450600085036123d1575b819350505050919050565b60008073ffffffffffffffffffffffffffffffffffffffff168373ffffffffffffffffffffffffffffffffffffffff16141580156124e957508273ffffffffffffffffffffffffffffffffffffffff168473ffffffffffffffffffffffffffffffffffffffff1614806124aa57506124a9848461148d565b5b806124e857508273ffffffffffffffffffffffffffffffffffffffff166124d08361168b565b73ffffffffffffffffffffffffffffffffffffffff16145b5b90509392505050565b600073ffffffffffffffffffffffffffffffffffffffff168273ffffffffffffffffffffffffffffffffffffffff16036125645760006040517f64a0ae9200000000000000000000000000000000000000000000000000000000815260040161255b9190612b52565b60405180910390fd5b6000612572838360006116e2565b9050600073ffffffffffffffffffffffffffffffffffffffff168173ffffffffffffffffffffffffffffffffffffffff16146125e65760006040517f73c6ac6e0000000000000000000000000000000000000000000000000000000081526004016125dd9190612b52565b60405180910390fd5b505050565b600080600090507a184f03e93ff9f4daa797ed6e38ed64bf6a1f0100000000000000008310612649577a184f03e93ff9f4daa797ed6e38ed64bf6a1f010000000000000000838161263f5761263e61334e565b5b0492506040810190505b6d04ee2d6d415b85acef81000000008310612686576d04ee2d6d415b85acef8100000000838161267c5761267b61334e565b5b0492506020810190505b662386f26fc1000083106126b557662386f26fc1000083816126ab576126aa61334e565b5b0492506010810190505b6305f5e10083106126de576305f5e10083816126d4576126d361334e565b5b0492506008810190505b61271083106127035761271083816126f9576126f861334e565b5b0492506004810190505b60648310612726576064838161271c5761271b61334e565b5b0492506002810190505b600a8310612735576001810190505b80915050919050565b6040518060c0016040528060008152602001600073ffffffffffffffffffffffffffffffffffffffff168152602001600073ffffffffffffffffffffffffffffffffffffffff16815260200160008152602001600081526020016000151581525090565b6000604051905090565b600080fd5b600080fd5b60007fffffffff0000000000000000000000000000000000000000000000000000000082169050919050565b6127eb816127b6565b81146127f657600080fd5b50565b600081359050612808816127e2565b92915050565b600060208284031215612824576128236127ac565b5b6000612832848285016127f9565b91505092915050565b60008115159050919050565b6128508161283b565b82525050565b600060208201905061286b6000830184612847565b92915050565b600081519050919050565b600082825260208201905092915050565b6000819050602082019050919050565b6000819050919050565b6128b08161289d565b82525050565b600073ffffffffffffffffffffffffffffffffffffffff82169050919050565b60006128e1826128b6565b9050919050565b6128f1816128d6565b82525050565b6129008161283b565b82525050565b60c08201600082015161291c60008501826128a7565b50602082015161292f60208501826128e8565b50604082015161294260408501826128e8565b50606082015161295560608501826128a7565b50608082015161296860808501826128a7565b5060a082015161297b60a08501826128f7565b50505050565b600061298d8383612906565b60c08301905092915050565b6000602082019050919050565b60006129b182612871565b6129bb818561287c565b93506129c68361288d565b8060005b838110156129f75781516129de8882612981565b97506129e983612999565b9250506001810190506129ca565b5085935050505092915050565b60006020820190508181036000830152612a1e81846129a6565b905092915050565b600081519050919050565b600082825260208201905092915050565b60005b83811015612a60578082015181840152602081019050612a45565b60008484015250505050565b6000601f19601f8301169050919050565b6000612a8882612a26565b612a928185612a31565b9350612aa2818560208601612a42565b612aab81612a6c565b840191505092915050565b60006020820190508181036000830152612ad08184612a7d565b905092915050565b612ae18161289d565b8114612aec57600080fd5b50565b600081359050612afe81612ad8565b92915050565b600060208284031215612b1a57612b196127ac565b5b6000612b2884828501612aef565b91505092915050565b6000612b3c826128b6565b9050919050565b612b4c81612b31565b82525050565b6000602082019050612b676000830184612b43565b92915050565b612b7681612b31565b8114612b8157600080fd5b50565b600081359050612b9381612b6d565b92915050565b60008060408385031215612bb057612baf6127ac565b5b6000612bbe85828601612b84565b9250506020612bcf85828601612aef565b9150509250929050565b600080600060608486031215612bf257612bf16127ac565b5b6000612c0086828701612b84565b9350506020612c1186828701612b84565b9250506040612c2286828701612aef565b9150509250925092565b60c082016000820151612c4260008501826128a7565b506020820151612c5560208501826128e8565b506040820151612c6860408501826128e8565b506060820151612c7b60608501826128a7565b506080820151612c8e60808501826128a7565b5060a0820151612ca160a08501826128f7565b50505050565b600060c082019050612cbc6000830184612c2c565b92915050565b600060208284031215612cd857612cd76127ac565b5b6000612ce684828501612b84565b91505092915050565b612cf88161289d565b82525050565b6000602082019050612d136000830184612cef565b92915050565b612d22816128d6565b82525050565b6000602082019050612d3d6000830184612d19565b92915050565b612d4c8161283b565b8114612d5757600080fd5b50565b600081359050612d6981612d43565b92915050565b60008060408385031215612d8657612d856127ac565b5b6000612d9485828601612b84565b9250506020612da585828601612d5a565b9150509250929050565b60008060408385031215612dc657612dc56127ac565b5b6000612dd485828601612aef565b9250506020612de585828601612aef565b9150509250929050565b600080fd5b600080fd5b7f4e487b7100000000000000000000000000000000000000000000000000000000600052604160045260246000fd5b612e3182612a6c565b810181811067ffffffffffffffff82111715612e5057612e4f612df9565b5b80604052505050565b6000612e636127a2565b9050612e6f8282612e28565b919050565b600067ffffffffffffffff821115612e8f57612e8e612df9565b5b612e9882612a6c565b9050602081019050919050565b82818337600083830152505050565b6000612ec7612ec284612e74565b612e59565b905082815260208101848484011115612ee357612ee2612df4565b5b612eee848285612ea5565b509392505050565b600082601f830112612f0b57612f0a612def565b5b8135612f1b848260208601612eb4565b91505092915050565b60008060008060808587031215612f3e57612f3d6127ac565b5b6000612f4c87828801612b84565b9450506020612f5d87828801612b84565b9350506040612f6e87828801612aef565b925050606085013567ffffffffffffffff811115612f8f57612f8e6127b1565b5b612f9b87828801612ef6565b91505092959194509250565b600067ffffffffffffffff821115612fc257612fc1612df9565b5b612fcb82612a6c565b9050602081019050919050565b6000612feb612fe684612fa7565b612e59565b90508281526020810184848401111561300757613006612df4565b5b613012848285612ea5565b509392505050565b600082601f83011261302f5761302e612def565b5b813561303f848260208601612fd8565b91505092915050565b600080600060608486031215613061576130606127ac565b5b600084013567ffffffffffffffff81111561307f5761307e6127b1565b5b61308b8682870161301a565b935050602061309c86828701612aef565b92505060406130ad86828701612aef565b9150509250925092565b600080604083850312156130ce576130cd6127ac565b5b60006130dc85828601612b84565b92505060206130ed85828601612b84565b9150509250929050565b7f4e487b7100000000000000000000000000000000000000000000000000000000600052601160045260246000fd5b60006131318261289d565b91507fffffffffffffffffffffffffffffffffffffffffffffffffffffffffffffffff8203613163576131626130f7565b5b600182019050919050565b7f4e4f204e4654206f776e65640000000000000000000000000000000000000000600082015250565b60006131a4600c83612a31565b91506131af8261316e565b602082019050919050565b600060208201905081810360008301526131d381613197565b9050919050565b7f4e487b7100000000000000000000000000000000000000000000000000000000600052603260045260246000fd5b7f4e487b7100000000000000000000000000000000000000000000000000000000600052602260045260246000fd5b6000600282049050600182168061325057607f821691505b60208210810361326357613262613209565b5b50919050565b600060608201905061327e6000830186612b43565b61328b6020830185612cef565b6132986040830184612b43565b949350505050565b7f75206d7573742070617920746865206578616374207072696365000000000000600082015250565b60006132d6601a83612a31565b91506132e1826132a0565b602082019050919050565b60006020820190508181036000830152613305816132c9565b9050919050565b60006133178261289d565b91506133228361289d565b92508282026133308161289d565b91508282048414831517613347576133466130f7565b5b5092915050565b7f4e487b7100000000000000000000000000000000000000000000000000000000600052601260045260246000fd5b60006133888261289d565b91506133938361289d565b9250826133a3576133a261334e565b5b828204905092915050565b60006133b98261289d565b91506133c48361289d565b92508282039050818111156133dc576133db6130f7565b5b92915050565b7f552063616e7420726573616c65206f7468657273206e66740000000000000000600082015250565b6000613418601883612a31565b9150613423826133e2565b602082019050919050565b600060208201905081810360008301526134478161340b565b9050919050565b7f5072696365206d7573742062652067726561746572207468616e20302e30303260008201527f2065746865720000000000000000000000000000000000000000000000000000602082015250565b60006134aa602683612a31565b91506134b58261344e565b604082019050919050565b600060208201905081810360008301526134d98161349d565b9050919050565b7f5072696365206d7573742062652067726561746572207468616e20302e30303260008201527f2065746800000000000000000000000000000000000000000000000000000000602082015250565b600061353c602483612a31565b9150613547826134e0565b604082019050919050565b6000602082019050818103600083015261356b8161352f565b9050919050565b600081905092915050565b600061358882612a26565b6135928185613572565b93506135a2818560208601612a42565b80840191505092915050565b60006135ba828561357d565b91506135c6828461357d565b91508190509392505050565b600081519050919050565b600082825260208201905092915050565b60006135f9826135d2565b61360381856135dd565b9350613613818560208601612a42565b61361c81612a6c565b840191505092915050565b600060808201905061363c6000830187612b43565b6136496020830186612b43565b6136566040830185612cef565b818103606083015261366881846135ee565b905095945050505050565b600081519050613682816127e2565b92915050565b60006020828403121561369e5761369d6127ac565b5b60006136ac84828501613673565b91505092915050565b60008190508160005260206000209050919050565b60006020601f8301049050919050565b600082821b905092915050565b6000600883026137177fffffffffffffffffffffffffffffffffffffffffffffffffffffffffffffffff826136da565b61372186836136da565b95508019841693508086168417925050509392505050565b6000819050919050565b600061375e6137596137548461289d565b613739565b61289d565b9050919050565b6000819050919050565b61377883613743565b61378c61378482613765565b8484546136e7565b825550505050565b600090565b6137a1613794565b6137ac81848461376f565b505050565b5b818110156137d0576137c5600082613799565b6001810190506137b2565b5050565b601f821115613815576137e6816136b5565b6137ef846136ca565b810160208510156137fe578190505b61381261380a856136ca565b8301826137b1565b50505b505050565b600082821c905092915050565b60006138386000198460080261381a565b1980831691505092915050565b60006138518383613827565b9150826002028217905092915050565b61386a82612a26565b67ffffffffffffffff81111561388357613882612df9565b5b61388d8254613238565b6138988282856137d4565b600060209050601f8311600181146138cb57600084156138b9578287015190505b6138c38582613845565b86555061392b565b601f1984166138d9866136b5565b60005b82811015613901578489015182556001820191506020850194506020810190506138dc565b8683101561391e578489015161391a601f891682613827565b8355505b6001600288020188555050505b505050505050565b7f526f79616c7469657320697320746f6f20686967680000000000000000000000600082015250565b6000613969601583612a31565b915061397482613933565b602082019050919050565b600060208201905081810360008301526139988161395c565b9050919050565b60006040820190506139b46000830185612b43565b6139c16020830184612cef565b939250505056fea264697066735822122014baf9f61437a3b6bedd7e43eedb8944631e9e2f1668825d1fd9d0d826eeb8dd64736f6c634300081b0033",
  "linkReferences": {},
  "deployedLinkReferences": {}
}