{
  "_format": "hh-sol-artifact-1",
  "contractName": "NFTMARKETPLACE",
  "sourceName": "contracts/NFTMARKET.sol",
  "abi": [
    {
      "inputs": [],
      "stateMutability": "nonpayable",
      "type": "constructor"
    },
    {
      "inputs": [
        {
          "internalType": "address",
          "name": "sender",
          "type": "address"
        },
        {
          "internalType": "uint256",
          "name": "tokenId",
          "type": "uint256"
        },
        {
          "internalType": "address",
          "name": "owner",
          "type": "address"
        }
      ],
      "name": "ERC721IncorrectOwner",
      "type": "error"
    },
    {
      "inputs": [
        {
          "internalType": "address",
          "name": "operator",
          "type": "address"
        },
        {
          "internalType": "uint256",
          "name": "tokenId",
          "type": "uint256"
        }
      ],
      "name": "ERC721InsufficientApproval",
      "type": "error"
    },
    {
      "inputs": [
        {
          "internalType": "address",
          "name": "approver",
          "type": "address"
        }
      ],
      "name": "ERC721InvalidApprover",
      "type": "error"
    },
    {
      "inputs": [
        {
          "internalType": "address",
          "name": "operator",
          "type": "address"
        }
      ],
      "name": "ERC721InvalidOperator",
      "type": "error"
    },
    {
      "inputs": [
        {
          "internalType": "address",
          "name": "owner",
          "type": "address"
        }
      ],
      "name": "ERC721InvalidOwner",
      "type": "error"
    },
    {
      "inputs": [
        {
          "internalType": "address",
          "name": "receiver",
          "type": "address"
        }
      ],
      "name": "ERC721InvalidReceiver",
      "type": "error"
    },
    {
      "inputs": [
        {
          "internalType": "address",
          "name": "sender",
          "type": "address"
        }
      ],
      "name": "ERC721InvalidSender",
      "type": "error"
    },
    {
      "inputs": [
        {
          "internalType": "uint256",
          "name": "tokenId",
          "type": "uint256"
        }
      ],
      "name": "ERC721NonexistentToken",
      "type": "error"
    },
    {
      "anonymous": false,
      "inputs": [
        {
          "indexed": true,
          "internalType": "address",
          "name": "owner",
          "type": "address"
        },
        {
          "indexed": true,
          "internalType": "address",
          "name": "approved",
          "type": "address"
        },
        {
          "indexed": true,
          "internalType": "uint256",
          "name": "tokenId",
          "type": "uint256"
        }
      ],
      "name": "Approval",
      "type": "event"
    },
    {
      "anonymous": false,
      "inputs": [
        {
          "indexed": true,
          "internalType": "address",
          "name": "owner",
          "type": "address"
        },
        {
          "indexed": true,
          "internalType": "address",
          "name": "operator",
          "type": "address"
        },
        {
          "indexed": false,
          "internalType": "bool",
          "name": "approved",
          "type": "bool"
        }
      ],
      "name": "ApprovalForAll",
      "type": "event"
    },
    {
      "anonymous": false,
      "inputs": [
        {
          "indexed": false,
          "internalType": "uint256",
          "name": "_fromTokenId",
          "type": "uint256"
        },
        {
          "indexed": false,
          "internalType": "uint256",
          "name": "_toTokenId",
          "type": "uint256"
        }
      ],
      "name": "BatchMetadataUpdate",
      "type": "event"
    },
    {
      "anonymous": false,
      "inputs": [
        {
          "indexed": false,
          "internalType": "uint256",
          "name": "_tokenId",
          "type": "uint256"
        }
      ],
      "name": "MetadataUpdate",
      "type": "event"
    },
    {
      "anonymous": false,
      "inputs": [
        {
          "indexed": true,
          "internalType": "address",
          "name": "from",
          "type": "address"
        },
        {
          "indexed": true,
          "internalType": "address",
          "name": "to",
          "type": "address"
        },
        {
          "indexed": true,
          "internalType": "uint256",
          "name": "tokenId",
          "type": "uint256"
        }
      ],
      "name": "Transfer",
      "type": "event"
    },
    {
      "inputs": [
        {
          "internalType": "address",
          "name": "to",
          "type": "address"
        },
        {
          "internalType": "uint256",
          "name": "tokenId",
          "type": "uint256"
        }
      ],
      "name": "approve",
      "outputs": [],
      "stateMutability": "nonpayable",
      "type": "function"
    },
    {
      "inputs": [
        {
          "internalType": "address",
          "name": "owner",
          "type": "address"
        }
      ],
      "name": "balanceOf",
      "outputs": [
        {
          "internalType": "uint256",
          "name": "",
          "type": "uint256"
        }
      ],
      "stateMutability": "view",
      "type": "function"
    },
    {
      "inputs": [
        {
          "internalType": "uint256",
          "name": "_strtPrice",
          "type": "uint256"
        },
        {
          "internalType": "uint256",
          "name": "_royalty",
          "type": "uint256"
        },
        {
          "internalType": "string",
          "name": "_tokenURI",
          "type": "string"
        }
      ],
      "name": "createNftListing",
      "outputs": [],
      "stateMutability": "payable",
      "type": "function"
    },
    {
      "inputs": [
        {
          "internalType": "uint256",
          "name": "_tokenId",
          "type": "uint256"
        }
      ],
      "name": "finalizeBidding",
      "outputs": [],
      "stateMutability": "nonpayable",
      "type": "function"
    },
    {
      "inputs": [
        {
          "internalType": "uint256",
          "name": "_tokenId",
          "type": "uint256"
        }
      ],
      "name": "getANft",
      "outputs": [
        {
          "components": [
            {
              "internalType": "uint256",
              "name": "startPrice",
              "type": "uint256"
            },
            {
              "internalType": "uint256",
              "name": "currentPrice",
              "type": "uint256"
            },
            {
              "internalType": "uint256",
              "name": "biddingTime",
              "type": "uint256"
            },
            {
              "internalType": "uint256",
              "name": "royaltyFee",
              "type": "uint256"
            },
            {
              "internalType": "uint256",
              "name": "tokenId",
              "type": "uint256"
            },
            {
              "internalType": "bool",
              "name": "isListed",
              "type": "bool"
            },
            {
              "internalType": "address payable",
              "name": "owner",
              "type": "address"
            },
            {
              "internalType": "address",
              "name": "highestBidder",
              "type": "address"
            },
            {
              "internalType": "address payable",
              "name": "minter",
              "type": "address"
            }
          ],
          "internalType": "struct NFTMARKETPLACE.NftListing",
          "name": "",
          "type": "tuple"
        }
      ],
      "stateMutability": "view",
      "type": "function"
    },
    {
      "inputs": [],
      "name": "getAllListedNfts",
      "outputs": [
        {
          "components": [
            {
              "internalType": "uint256",
              "name": "startPrice",
              "type": "uint256"
            },
            {
              "internalType": "uint256",
              "name": "currentPrice",
              "type": "uint256"
            },
            {
              "internalType": "uint256",
              "name": "biddingTime",
              "type": "uint256"
            },
            {
              "internalType": "uint256",
              "name": "royaltyFee",
              "type": "uint256"
            },
            {
              "internalType": "uint256",
              "name": "tokenId",
              "type": "uint256"
            },
            {
              "internalType": "bool",
              "name": "isListed",
              "type": "bool"
            },
            {
              "internalType": "address payable",
              "name": "owner",
              "type": "address"
            },
            {
              "internalType": "address",
              "name": "highestBidder",
              "type": "address"
            },
            {
              "internalType": "address payable",
              "name": "minter",
              "type": "address"
            }
          ],
          "internalType": "struct NFTMARKETPLACE.NftListing[]",
          "name": "",
          "type": "tuple[]"
        }
      ],
      "stateMutability": "view",
      "type": "function"
    },
    {
      "inputs": [
        {
          "internalType": "uint256",
          "name": "tokenId",
          "type": "uint256"
        }
      ],
      "name": "getApproved",
      "outputs": [
        {
          "internalType": "address",
          "name": "",
          "type": "address"
        }
      ],
      "stateMutability": "view",
      "type": "function"
    },
    {
      "inputs": [
        {
          "internalType": "address",
          "name": "owner",
          "type": "address"
        },
        {
          "internalType": "address",
          "name": "operator",
          "type": "address"
        }
      ],
      "name": "isApprovedForAll",
      "outputs": [
        {
          "internalType": "bool",
          "name": "",
          "type": "bool"
        }
      ],
      "stateMutability": "view",
      "type": "function"
    },
    {
      "inputs": [],
      "name": "name",
      "outputs": [
        {
          "internalType": "string",
          "name": "",
          "type": "string"
        }
      ],
      "stateMutability": "view",
      "type": "function"
    },
    {
      "inputs": [
        {
          "internalType": "uint256",
          "name": "tokenId",
          "type": "uint256"
        }
      ],
      "name": "ownerOf",
      "outputs": [
        {
          "internalType": "address",
          "name": "",
          "type": "address"
        }
      ],
      "stateMutability": "view",
      "type": "function"
    },
    {
      "inputs": [
        {
          "internalType": "uint256",
          "name": "_tokenId",
          "type": "uint256"
        }
      ],
      "name": "participateBidding",
      "outputs": [],
      "stateMutability": "payable",
      "type": "function"
    },
    {
      "inputs": [
        {
          "internalType": "uint256",
          "name": "_tokenId",
          "type": "uint256"
        }
      ],
      "name": "reList",
      "outputs": [],
      "stateMutability": "payable",
      "type": "function"
    },
    {
      "inputs": [
        {
          "internalType": "address",
          "name": "from",
          "type": "address"
        },
        {
          "internalType": "address",
          "name": "to",
          "type": "address"
        },
        {
          "internalType": "uint256",
          "name": "tokenId",
          "type": "uint256"
        }
      ],
      "name": "safeTransferFrom",
      "outputs": [],
      "stateMutability": "nonpayable",
      "type": "function"
    },
    {
      "inputs": [
        {
          "internalType": "address",
          "name": "from",
          "type": "address"
        },
        {
          "internalType": "address",
          "name": "to",
          "type": "address"
        },
        {
          "internalType": "uint256",
          "name": "tokenId",
          "type": "uint256"
        },
        {
          "internalType": "bytes",
          "name": "data",
          "type": "bytes"
        }
      ],
      "name": "safeTransferFrom",
      "outputs": [],
      "stateMutability": "nonpayable",
      "type": "function"
    },
    {
      "inputs": [
        {
          "internalType": "address",
          "name": "operator",
          "type": "address"
        },
        {
          "internalType": "bool",
          "name": "approved",
          "type": "bool"
        }
      ],
      "name": "setApprovalForAll",
      "outputs": [],
      "stateMutability": "nonpayable",
      "type": "function"
    },
    {
      "inputs": [
        {
          "internalType": "bytes4",
          "name": "interfaceId",
          "type": "bytes4"
        }
      ],
      "name": "supportsInterface",
      "outputs": [
        {
          "internalType": "bool",
          "name": "",
          "type": "bool"
        }
      ],
      "stateMutability": "view",
      "type": "function"
    },
    {
      "inputs": [],
      "name": "symbol",
      "outputs": [
        {
          "internalType": "string",
          "name": "",
          "type": "string"
        }
      ],
      "stateMutability": "view",
      "type": "function"
    },
    {
      "inputs": [
        {
          "internalType": "uint256",
          "name": "tokenId",
          "type": "uint256"
        }
      ],
      "name": "tokenURI",
      "outputs": [
        {
          "internalType": "string",
          "name": "",
          "type": "string"
        }
      ],
      "stateMutability": "view",
      "type": "function"
    },
    {
      "inputs": [
        {
          "internalType": "address",
          "name": "from",
          "type": "address"
        },
        {
          "internalType": "address",
          "name": "to",
          "type": "address"
        },
        {
          "internalType": "uint256",
          "name": "tokenId",
          "type": "uint256"
        }
      ],
      "name": "transferFrom",
      "outputs": [],
      "stateMutability": "nonpayable",
      "type": "function"
    }
  ],
  "bytecode": "0x608060405266038d7ea4c6800060085534801561001b57600080fd5b506040518060400160405280600e81526020017f4e46544d41524b4554504c4143450000000000000000000000000000000000008152506040518060400160405280600481526020017f4e4654530000000000000000000000000000000000000000000000000000000081525081600090816100979190610340565b5080600190816100a79190610340565b50505033600760006101000a81548173ffffffffffffffffffffffffffffffffffffffff021916908373ffffffffffffffffffffffffffffffffffffffff160217905550610412565b600081519050919050565b7f4e487b7100000000000000000000000000000000000000000000000000000000600052604160045260246000fd5b7f4e487b7100000000000000000000000000000000000000000000000000000000600052602260045260246000fd5b6000600282049050600182168061017157607f821691505b6020821081036101845761018361012a565b5b50919050565b60008190508160005260206000209050919050565b60006020601f8301049050919050565b600082821b905092915050565b6000600883026101ec7fffffffffffffffffffffffffffffffffffffffffffffffffffffffffffffffff826101af565b6101f686836101af565b95508019841693508086168417925050509392505050565b6000819050919050565b6000819050919050565b600061023d6102386102338461020e565b610218565b61020e565b9050919050565b6000819050919050565b61025783610222565b61026b61026382610244565b8484546101bc565b825550505050565b600090565b610280610273565b61028b81848461024e565b505050565b5b818110156102af576102a4600082610278565b600181019050610291565b5050565b601f8211156102f4576102c58161018a565b6102ce8461019f565b810160208510156102dd578190505b6102f16102e98561019f565b830182610290565b50505b505050565b600082821c905092915050565b6000610317600019846008026102f9565b1980831691505092915050565b60006103308383610306565b9150826002028217905092915050565b610349826100f0565b67ffffffffffffffff811115610362576103616100fb565b5b61036c8254610159565b6103778282856102b3565b600060209050601f8311600181146103aa5760008415610398578287015190505b6103a28582610324565b86555061040a565b601f1984166103b88661018a565b60005b828110156103e0578489015182556001820191506020850194506020810190506103bb565b868310156103fd57848901516103f9601f891682610306565b8355505b6001600288020188555050505b505050505050565b6141b4806104216000396000f3fe6080604052600436106101145760003560e01c80636352211e116100a0578063a22cb46511610064578063a22cb465146103a7578063b88d4fde146103d0578063bb81ff5c146103f9578063c87b56dd14610415578063e985e9c51461045257610114565b80636352211e146102bb57806370a08231146102f85780637a8e4a831461033557806395ce4a3b1461035157806395d89b411461037c57610114565b806311a5d194116100e757806311a5d194146101e757806323b872dd1461021057806324b89db71461023957806342842e0e146102765780634cc41e771461029f57610114565b806301ffc9a71461011957806306fdde0314610156578063081812fc14610181578063095ea7b3146101be575b600080fd5b34801561012557600080fd5b50610140600480360381019061013b9190612dbb565b61048f565b60405161014d9190612e03565b60405180910390f35b34801561016257600080fd5b5061016b6104f0565b6040516101789190612eae565b60405180910390f35b34801561018d57600080fd5b506101a860048036038101906101a39190612f06565b610582565b6040516101b59190612f74565b60405180910390f35b3480156101ca57600080fd5b506101e560048036038101906101e09190612fbb565b61059e565b005b3480156101f357600080fd5b5061020e60048036038101906102099190612f06565b6105b4565b005b34801561021c57600080fd5b5061023760048036038101906102329190612ffb565b610a38565b005b34801561024557600080fd5b50610260600480360381019061025b9190612f06565b610b3a565b60405161026d9190613153565b60405180910390f35b34801561028257600080fd5b5061029d60048036038101906102989190612ffb565b610cb7565b005b6102b960048036038101906102b49190612f06565b610cd7565b005b3480156102c757600080fd5b506102e260048036038101906102dd9190612f06565b610fe2565b6040516102ef9190612f74565b60405180910390f35b34801561030457600080fd5b5061031f600480360381019061031a919061316f565b610ff4565b60405161032c91906131ab565b60405180910390f35b61034f600480360381019061034a9190612f06565b6110ae565b005b34801561035d57600080fd5b506103666114b8565b604051610373919061332d565b60405180910390f35b34801561038857600080fd5b506103916116c0565b60405161039e9190612eae565b60405180910390f35b3480156103b357600080fd5b506103ce60048036038101906103c9919061337b565b611752565b005b3480156103dc57600080fd5b506103f760048036038101906103f291906134f0565b611768565b005b610413600480360381019061040e9190613614565b61178d565b005b34801561042157600080fd5b5061043c60048036038101906104379190612f06565b611a87565b6040516104499190612eae565b60405180910390f35b34801561045e57600080fd5b5061047960048036038101906104749190613683565b611b9a565b6040516104869190612e03565b60405180910390f35b6000634906490660e01b7bffffffffffffffffffffffffffffffffffffffffffffffffffffffff1916827bffffffffffffffffffffffffffffffffffffffffffffffffffffffff191614806104e957506104e882611c2e565b5b9050919050565b6060600080546104ff906136f2565b80601f016020809104026020016040519081016040528092919081815260200182805461052b906136f2565b80156105785780601f1061054d57610100808354040283529160200191610578565b820191906000526020600020905b81548152906001019060200180831161055b57829003601f168201915b5050505050905090565b600061058d82611d10565b5061059782611d98565b9050919050565b6105b082826105ab611dd5565b611ddd565b5050565b6000600960008381526020019081526020016000206040518061012001604052908160008201548152602001600182015481526020016002820154815260200160038201548152602001600482015481526020016005820160009054906101000a900460ff161515151581526020016005820160019054906101000a900473ffffffffffffffffffffffffffffffffffffffff1673ffffffffffffffffffffffffffffffffffffffff1673ffffffffffffffffffffffffffffffffffffffff1681526020016006820160009054906101000a900473ffffffffffffffffffffffffffffffffffffffff1673ffffffffffffffffffffffffffffffffffffffff1673ffffffffffffffffffffffffffffffffffffffff1681526020016007820160009054906101000a900473ffffffffffffffffffffffffffffffffffffffff1673ffffffffffffffffffffffffffffffffffffffff1673ffffffffffffffffffffffffffffffffffffffff16815250509050600115158160a00151151514610771576040517f08c379a00000000000000000000000000000000000000000000000000000000081526004016107689061376f565b60405180910390fd5b62093a80816040015161078491906137be565b4210156107c6576040517f08c379a00000000000000000000000000000000000000000000000000000000081526004016107bd90613864565b60405180910390fd5b60006064826020015183606001516107de9190613884565b6107e891906138f5565b905081610100015173ffffffffffffffffffffffffffffffffffffffff166108fc829081150290604051600060405180830381858888f19350505050158015610835573d6000803e3d6000fd5b508160c0015173ffffffffffffffffffffffffffffffffffffffff166108fc8284602001516108649190613926565b9081150290604051600060405180830381858888f1935050505015801561088f573d6000803e3d6000fd5b508160e001518260c0019073ffffffffffffffffffffffffffffffffffffffff16908173ffffffffffffffffffffffffffffffffffffffff168152505060008260a00190151590811515815250508160096000858152602001908152602001600020600082015181600001556020820151816001015560408201518160020155606082015181600301556080820151816004015560a08201518160050160006101000a81548160ff02191690831515021790555060c08201518160050160016101000a81548173ffffffffffffffffffffffffffffffffffffffff021916908373ffffffffffffffffffffffffffffffffffffffff16021790555060e08201518160060160006101000a81548173ffffffffffffffffffffffffffffffffffffffff021916908373ffffffffffffffffffffffffffffffffffffffff1602179055506101008201518160070160006101000a81548173ffffffffffffffffffffffffffffffffffffffff021916908373ffffffffffffffffffffffffffffffffffffffff160217905550905050610a33610a2884610fe2565b8360e0015185611def565b505050565b600073ffffffffffffffffffffffffffffffffffffffff168273ffffffffffffffffffffffffffffffffffffffff1603610aaa5760006040517f64a0ae92000000000000000000000000000000000000000000000000000000008152600401610aa19190612f74565b60405180910390fd5b6000610abe8383610ab9611dd5565b611f5c565b90508373ffffffffffffffffffffffffffffffffffffffff168173ffffffffffffffffffffffffffffffffffffffff1614610b34578382826040517f64283d7b000000000000000000000000000000000000000000000000000000008152600401610b2b9392919061395a565b60405180910390fd5b50505050565b610b42612cbf565b600960008381526020019081526020016000206040518061012001604052908160008201548152602001600182015481526020016002820154815260200160038201548152602001600482015481526020016005820160009054906101000a900460ff161515151581526020016005820160019054906101000a900473ffffffffffffffffffffffffffffffffffffffff1673ffffffffffffffffffffffffffffffffffffffff1673ffffffffffffffffffffffffffffffffffffffff1681526020016006820160009054906101000a900473ffffffffffffffffffffffffffffffffffffffff1673ffffffffffffffffffffffffffffffffffffffff1673ffffffffffffffffffffffffffffffffffffffff1681526020016007820160009054906101000a900473ffffffffffffffffffffffffffffffffffffffff1673ffffffffffffffffffffffffffffffffffffffff1673ffffffffffffffffffffffffffffffffffffffff16815250509050919050565b610cd283838360405180602001604052806000815250611768565b505050565b6000600960008381526020019081526020016000206040518061012001604052908160008201548152602001600182015481526020016002820154815260200160038201548152602001600482015481526020016005820160009054906101000a900460ff161515151581526020016005820160019054906101000a900473ffffffffffffffffffffffffffffffffffffffff1673ffffffffffffffffffffffffffffffffffffffff1673ffffffffffffffffffffffffffffffffffffffff1681526020016006820160009054906101000a900473ffffffffffffffffffffffffffffffffffffffff1673ffffffffffffffffffffffffffffffffffffffff1673ffffffffffffffffffffffffffffffffffffffff1681526020016007820160009054906101000a900473ffffffffffffffffffffffffffffffffffffffff1673ffffffffffffffffffffffffffffffffffffffff1673ffffffffffffffffffffffffffffffffffffffff16815250509050600015158160a00151151514610e94576040517f08c379a0000000000000000000000000000000000000000000000000000000008152600401610e8b90613a03565b60405180910390fd5b66038d7ea4c680003414610edd576040517f08c379a0000000000000000000000000000000000000000000000000000000008152600401610ed490613a6f565b60405180910390fd5b3373ffffffffffffffffffffffffffffffffffffffff168160c0015173ffffffffffffffffffffffffffffffffffffffff1614610f4f576040517f08c379a0000000000000000000000000000000000000000000000000000000008152600401610f4690613adb565b60405180910390fd5b60018160a00190151590811515815250508060200151816020018181525050600760009054906101000a900473ffffffffffffffffffffffffffffffffffffffff1673ffffffffffffffffffffffffffffffffffffffff166108fc66038d7ea4c680009081150290604051600060405180830381858888f19350505050158015610fdd573d6000803e3d6000fd5b505050565b6000610fed82611d10565b9050919050565b60008073ffffffffffffffffffffffffffffffffffffffff168273ffffffffffffffffffffffffffffffffffffffff16036110675760006040517f89c62b6400000000000000000000000000000000000000000000000000000000815260040161105e9190612f74565b60405180910390fd5b600360008373ffffffffffffffffffffffffffffffffffffffff1673ffffffffffffffffffffffffffffffffffffffff168152602001908152602001600020549050919050565b6000600960008381526020019081526020016000206040518061012001604052908160008201548152602001600182015481526020016002820154815260200160038201548152602001600482015481526020016005820160009054906101000a900460ff161515151581526020016005820160019054906101000a900473ffffffffffffffffffffffffffffffffffffffff1673ffffffffffffffffffffffffffffffffffffffff1673ffffffffffffffffffffffffffffffffffffffff1681526020016006820160009054906101000a900473ffffffffffffffffffffffffffffffffffffffff1673ffffffffffffffffffffffffffffffffffffffff1673ffffffffffffffffffffffffffffffffffffffff1681526020016007820160009054906101000a900473ffffffffffffffffffffffffffffffffffffffff1673ffffffffffffffffffffffffffffffffffffffff1673ffffffffffffffffffffffffffffffffffffffff168152505090503481602001511115611267576040517f08c379a000000000000000000000000000000000000000000000000000000000815260040161125e90613b6d565b60405180910390fd5b8060a001516112ab576040517f08c379a00000000000000000000000000000000000000000000000000000000081526004016112a290613bd9565b60405180910390fd5b600073ffffffffffffffffffffffffffffffffffffffff168160e0015173ffffffffffffffffffffffffffffffffffffffff1614611333578060e0015173ffffffffffffffffffffffffffffffffffffffff166108fc82602001519081150290604051600060405180830381858888f19350505050158015611331573d6000803e3d6000fd5b505b34816020018181525050338160e0019073ffffffffffffffffffffffffffffffffffffffff16908173ffffffffffffffffffffffffffffffffffffffff16815250508060096000848152602001908152602001600020600082015181600001556020820151816001015560408201518160020155606082015181600301556080820151816004015560a08201518160050160006101000a81548160ff02191690831515021790555060c08201518160050160016101000a81548173ffffffffffffffffffffffffffffffffffffffff021916908373ffffffffffffffffffffffffffffffffffffffff16021790555060e08201518160060160006101000a81548173ffffffffffffffffffffffffffffffffffffffff021916908373ffffffffffffffffffffffffffffffffffffffff1602179055506101008201518160070160006101000a81548173ffffffffffffffffffffffffffffffffffffffff021916908373ffffffffffffffffffffffffffffffffffffffff1602179055509050505050565b60606000600a5467ffffffffffffffff8111156114d8576114d76133c5565b5b60405190808252806020026020018201604052801561151157816020015b6114fe612cbf565b8152602001906001900390816114f65790505b50905060005b600a548110156116b857600960008281526020019081526020016000206040518061012001604052908160008201548152602001600182015481526020016002820154815260200160038201548152602001600482015481526020016005820160009054906101000a900460ff161515151581526020016005820160019054906101000a900473ffffffffffffffffffffffffffffffffffffffff1673ffffffffffffffffffffffffffffffffffffffff1673ffffffffffffffffffffffffffffffffffffffff1681526020016006820160009054906101000a900473ffffffffffffffffffffffffffffffffffffffff1673ffffffffffffffffffffffffffffffffffffffff1673ffffffffffffffffffffffffffffffffffffffff1681526020016007820160009054906101000a900473ffffffffffffffffffffffffffffffffffffffff1673ffffffffffffffffffffffffffffffffffffffff1673ffffffffffffffffffffffffffffffffffffffff16815250508282815181106116a2576116a1613bf9565b5b6020026020010181905250806001019050611517565b508091505090565b6060600180546116cf906136f2565b80601f01602080910402602001604051908101604052809291908181526020018280546116fb906136f2565b80156117485780601f1061171d57610100808354040283529160200191611748565b820191906000526020600020905b81548152906001019060200180831161172b57829003601f168201915b5050505050905090565b61176461175d611dd5565b8383612176565b5050565b611773848484610a38565b61178761177e611dd5565b858585856122e5565b50505050565b60328211156117d1576040517f08c379a00000000000000000000000000000000000000000000000000000000081526004016117c890613c9a565b60405180910390fd5b66071afd498d000083101561181b576040517f08c379a000000000000000000000000000000000000000000000000000000000815260040161181290613d2c565b60405180910390fd5b61182733600a54612496565b611833600a54826124b4565b6000604051806101200160405280858152602001858152602001428152602001848152602001600a5481526020016001151581526020013373ffffffffffffffffffffffffffffffffffffffff168152602001600073ffffffffffffffffffffffffffffffffffffffff1681526020013373ffffffffffffffffffffffffffffffffffffffff1681525090508060096000600a548152602001908152602001600020600082015181600001556020820151816001015560408201518160020155606082015181600301556080820151816004015560a08201518160050160006101000a81548160ff02191690831515021790555060c08201518160050160016101000a81548173ffffffffffffffffffffffffffffffffffffffff021916908373ffffffffffffffffffffffffffffffffffffffff16021790555060e08201518160060160006101000a81548173ffffffffffffffffffffffffffffffffffffffff021916908373ffffffffffffffffffffffffffffffffffffffff1602179055506101008201518160070160006101000a81548173ffffffffffffffffffffffffffffffffffffffff021916908373ffffffffffffffffffffffffffffffffffffffff160217905550905050600760009054906101000a900473ffffffffffffffffffffffffffffffffffffffff1673ffffffffffffffffffffffffffffffffffffffff166108fc349081150290604051600060405180830381858888f19350505050158015611a68573d6000803e3d6000fd5b50600a6000815480929190611a7c90613d4c565b919050555050505050565b6060611a9282611d10565b506000600660008481526020019081526020016000208054611ab3906136f2565b80601f0160208091040260200160405190810160405280929190818152602001828054611adf906136f2565b8015611b2c5780601f10611b0157610100808354040283529160200191611b2c565b820191906000526020600020905b815481529060010190602001808311611b0f57829003601f168201915b505050505090506000611b3d612510565b90506000815103611b52578192505050611b95565b600082511115611b87578082604051602001611b6f929190613dd0565b60405160208183030381529060405292505050611b95565b611b9084612527565b925050505b919050565b6000600560008473ffffffffffffffffffffffffffffffffffffffff1673ffffffffffffffffffffffffffffffffffffffff16815260200190815260200160002060008373ffffffffffffffffffffffffffffffffffffffff1673ffffffffffffffffffffffffffffffffffffffff16815260200190815260200160002060009054906101000a900460ff16905092915050565b60007f80ac58cd000000000000000000000000000000000000000000000000000000007bffffffffffffffffffffffffffffffffffffffffffffffffffffffff1916827bffffffffffffffffffffffffffffffffffffffffffffffffffffffff19161480611cf957507f5b5e139f000000000000000000000000000000000000000000000000000000007bffffffffffffffffffffffffffffffffffffffffffffffffffffffff1916827bffffffffffffffffffffffffffffffffffffffffffffffffffffffff1916145b80611d095750611d0882612590565b5b9050919050565b600080611d1c836125fa565b9050600073ffffffffffffffffffffffffffffffffffffffff168173ffffffffffffffffffffffffffffffffffffffff1603611d8f57826040517f7e273289000000000000000000000000000000000000000000000000000000008152600401611d8691906131ab565b60405180910390fd5b80915050919050565b60006004600083815260200190815260200160002060009054906101000a900473ffffffffffffffffffffffffffffffffffffffff169050919050565b600033905090565b611dea8383836001612637565b505050565b600073ffffffffffffffffffffffffffffffffffffffff168273ffffffffffffffffffffffffffffffffffffffff1603611e615760006040517f64a0ae92000000000000000000000000000000000000000000000000000000008152600401611e589190612f74565b60405180910390fd5b6000611e6f83836000611f5c565b9050600073ffffffffffffffffffffffffffffffffffffffff168173ffffffffffffffffffffffffffffffffffffffff1603611ee257816040517f7e273289000000000000000000000000000000000000000000000000000000008152600401611ed991906131ab565b60405180910390fd5b8373ffffffffffffffffffffffffffffffffffffffff168173ffffffffffffffffffffffffffffffffffffffff1614611f56578382826040517f64283d7b000000000000000000000000000000000000000000000000000000008152600401611f4d9392919061395a565b60405180910390fd5b50505050565b600080611f68846125fa565b9050600073ffffffffffffffffffffffffffffffffffffffff168373ffffffffffffffffffffffffffffffffffffffff1614611faa57611fa98184866127fc565b5b600073ffffffffffffffffffffffffffffffffffffffff168173ffffffffffffffffffffffffffffffffffffffff161461203b57611fec600085600080612637565b6001600360008373ffffffffffffffffffffffffffffffffffffffff1673ffffffffffffffffffffffffffffffffffffffff168152602001908152602001600020600082825403925050819055505b600073ffffffffffffffffffffffffffffffffffffffff168573ffffffffffffffffffffffffffffffffffffffff16146120be576001600360008773ffffffffffffffffffffffffffffffffffffffff1673ffffffffffffffffffffffffffffffffffffffff168152602001908152602001600020600082825401925050819055505b846002600086815260200190815260200160002060006101000a81548173ffffffffffffffffffffffffffffffffffffffff021916908373ffffffffffffffffffffffffffffffffffffffff160217905550838573ffffffffffffffffffffffffffffffffffffffff168273ffffffffffffffffffffffffffffffffffffffff167fddf252ad1be2c89b69c2b068fc378daa952ba7f163c4a11628f55a4df523b3ef60405160405180910390a4809150509392505050565b600073ffffffffffffffffffffffffffffffffffffffff168273ffffffffffffffffffffffffffffffffffffffff16036121e757816040517f5b08ba180000000000000000000000000000000000000000000000000000000081526004016121de9190612f74565b60405180910390fd5b80600560008573ffffffffffffffffffffffffffffffffffffffff1673ffffffffffffffffffffffffffffffffffffffff16815260200190815260200160002060008473ffffffffffffffffffffffffffffffffffffffff1673ffffffffffffffffffffffffffffffffffffffff16815260200190815260200160002060006101000a81548160ff0219169083151502179055508173ffffffffffffffffffffffffffffffffffffffff168373ffffffffffffffffffffffffffffffffffffffff167f17307eab39ab6107e8899845ad3d59bd9653f200f220920489ca2b5937696c31836040516122d89190612e03565b60405180910390a3505050565b60008373ffffffffffffffffffffffffffffffffffffffff163b111561248f578273ffffffffffffffffffffffffffffffffffffffff1663150b7a02868685856040518563ffffffff1660e01b81526004016123449493929190613e49565b6020604051808303816000875af192505050801561238057506040513d601f19601f8201168201806040525081019061237d9190613eaa565b60015b612404573d80600081146123b0576040519150601f19603f3d011682016040523d82523d6000602084013e6123b5565b606091505b5060008151036123fc57836040517f64a0ae920000000000000000000000000000000000000000000000000000000081526004016123f39190612f74565b60405180910390fd5b805181602001fd5b63150b7a0260e01b7bffffffffffffffffffffffffffffffffffffffffffffffffffffffff1916817bffffffffffffffffffffffffffffffffffffffffffffffffffffffff19161461248d57836040517f64a0ae920000000000000000000000000000000000000000000000000000000081526004016124849190612f74565b60405180910390fd5b505b5050505050565b6124b08282604051806020016040528060008152506128c0565b5050565b806006600084815260200190815260200160002090816124d49190614083565b507ff8e1a15aba9398e019f0b49df1a4fde98ee17ae345cb5f6b5e2c27f5033e8ce78260405161250491906131ab565b60405180910390a15050565b606060405180602001604052806000815250905090565b606061253282611d10565b50600061253d612510565b9050600081511161255d5760405180602001604052806000815250612588565b80612567846128e4565b604051602001612578929190613dd0565b6040516020818303038152906040525b915050919050565b60007f01ffc9a7000000000000000000000000000000000000000000000000000000007bffffffffffffffffffffffffffffffffffffffffffffffffffffffff1916827bffffffffffffffffffffffffffffffffffffffffffffffffffffffff1916149050919050565b60006002600083815260200190815260200160002060009054906101000a900473ffffffffffffffffffffffffffffffffffffffff169050919050565b80806126705750600073ffffffffffffffffffffffffffffffffffffffff168273ffffffffffffffffffffffffffffffffffffffff1614155b156127a457600061268084611d10565b9050600073ffffffffffffffffffffffffffffffffffffffff168373ffffffffffffffffffffffffffffffffffffffff16141580156126eb57508273ffffffffffffffffffffffffffffffffffffffff168173ffffffffffffffffffffffffffffffffffffffff1614155b80156126fe57506126fc8184611b9a565b155b1561274057826040517fa9fbf51f0000000000000000000000000000000000000000000000000000000081526004016127379190612f74565b60405180910390fd5b81156127a257838573ffffffffffffffffffffffffffffffffffffffff168273ffffffffffffffffffffffffffffffffffffffff167f8c5be1e5ebec7d5bd14f71427d1e84f3dd0314c0f7b2291e5b200ac8c7c3b92560405160405180910390a45b505b836004600085815260200190815260200160002060006101000a81548173ffffffffffffffffffffffffffffffffffffffff021916908373ffffffffffffffffffffffffffffffffffffffff16021790555050505050565b6128078383836129b2565b6128bb57600073ffffffffffffffffffffffffffffffffffffffff168373ffffffffffffffffffffffffffffffffffffffff160361287c57806040517f7e27328900000000000000000000000000000000000000000000000000000000815260040161287391906131ab565b60405180910390fd5b81816040517f177e802f0000000000000000000000000000000000000000000000000000000081526004016128b2929190614155565b60405180910390fd5b505050565b6128ca8383612a73565b6128df6128d5611dd5565b60008585856122e5565b505050565b6060600060016128f384612b6c565b01905060008167ffffffffffffffff811115612912576129116133c5565b5b6040519080825280601f01601f1916602001820160405280156129445781602001600182028036833780820191505090505b509050600082602001820190505b6001156129a7578080600190039150507f3031323334353637383961626364656600000000000000000000000000000000600a86061a8153600a858161299b5761299a6138c6565b5b04945060008503612952575b819350505050919050565b60008073ffffffffffffffffffffffffffffffffffffffff168373ffffffffffffffffffffffffffffffffffffffff1614158015612a6a57508273ffffffffffffffffffffffffffffffffffffffff168473ffffffffffffffffffffffffffffffffffffffff161480612a2b5750612a2a8484611b9a565b5b80612a6957508273ffffffffffffffffffffffffffffffffffffffff16612a5183611d98565b73ffffffffffffffffffffffffffffffffffffffff16145b5b90509392505050565b600073ffffffffffffffffffffffffffffffffffffffff168273ffffffffffffffffffffffffffffffffffffffff1603612ae55760006040517f64a0ae92000000000000000000000000000000000000000000000000000000008152600401612adc9190612f74565b60405180910390fd5b6000612af383836000611f5c565b9050600073ffffffffffffffffffffffffffffffffffffffff168173ffffffffffffffffffffffffffffffffffffffff1614612b675760006040517f73c6ac6e000000000000000000000000000000000000000000000000000000008152600401612b5e9190612f74565b60405180910390fd5b505050565b600080600090507a184f03e93ff9f4daa797ed6e38ed64bf6a1f0100000000000000008310612bca577a184f03e93ff9f4daa797ed6e38ed64bf6a1f0100000000000000008381612bc057612bbf6138c6565b5b0492506040810190505b6d04ee2d6d415b85acef81000000008310612c07576d04ee2d6d415b85acef81000000008381612bfd57612bfc6138c6565b5b0492506020810190505b662386f26fc100008310612c3657662386f26fc100008381612c2c57612c2b6138c6565b5b0492506010810190505b6305f5e1008310612c5f576305f5e1008381612c5557612c546138c6565b5b0492506008810190505b6127108310612c84576127108381612c7a57612c796138c6565b5b0492506004810190505b60648310612ca75760648381612c9d57612c9c6138c6565b5b0492506002810190505b600a8310612cb6576001810190505b80915050919050565b6040518061012001604052806000815260200160008152602001600081526020016000815260200160008152602001600015158152602001600073ffffffffffffffffffffffffffffffffffffffff168152602001600073ffffffffffffffffffffffffffffffffffffffff168152602001600073ffffffffffffffffffffffffffffffffffffffff1681525090565b6000604051905090565b600080fd5b600080fd5b60007fffffffff0000000000000000000000000000000000000000000000000000000082169050919050565b612d9881612d63565b8114612da357600080fd5b50565b600081359050612db581612d8f565b92915050565b600060208284031215612dd157612dd0612d59565b5b6000612ddf84828501612da6565b91505092915050565b60008115159050919050565b612dfd81612de8565b82525050565b6000602082019050612e186000830184612df4565b92915050565b600081519050919050565b600082825260208201905092915050565b60005b83811015612e58578082015181840152602081019050612e3d565b60008484015250505050565b6000601f19601f8301169050919050565b6000612e8082612e1e565b612e8a8185612e29565b9350612e9a818560208601612e3a565b612ea381612e64565b840191505092915050565b60006020820190508181036000830152612ec88184612e75565b905092915050565b6000819050919050565b612ee381612ed0565b8114612eee57600080fd5b50565b600081359050612f0081612eda565b92915050565b600060208284031215612f1c57612f1b612d59565b5b6000612f2a84828501612ef1565b91505092915050565b600073ffffffffffffffffffffffffffffffffffffffff82169050919050565b6000612f5e82612f33565b9050919050565b612f6e81612f53565b82525050565b6000602082019050612f896000830184612f65565b92915050565b612f9881612f53565b8114612fa357600080fd5b50565b600081359050612fb581612f8f565b92915050565b60008060408385031215612fd257612fd1612d59565b5b6000612fe085828601612fa6565b9250506020612ff185828601612ef1565b9150509250929050565b60008060006060848603121561301457613013612d59565b5b600061302286828701612fa6565b935050602061303386828701612fa6565b925050604061304486828701612ef1565b9150509250925092565b61305781612ed0565b82525050565b61306681612de8565b82525050565b600061307782612f33565b9050919050565b6130878161306c565b82525050565b61309681612f53565b82525050565b610120820160008201516130b3600085018261304e565b5060208201516130c6602085018261304e565b5060408201516130d9604085018261304e565b5060608201516130ec606085018261304e565b5060808201516130ff608085018261304e565b5060a082015161311260a085018261305d565b5060c082015161312560c085018261307e565b5060e082015161313860e085018261308d565b5061010082015161314d61010085018261307e565b50505050565b600061012082019050613169600083018461309c565b92915050565b60006020828403121561318557613184612d59565b5b600061319384828501612fa6565b91505092915050565b6131a581612ed0565b82525050565b60006020820190506131c0600083018461319c565b92915050565b600081519050919050565b600082825260208201905092915050565b6000819050602082019050919050565b61012082016000820151613209600085018261304e565b50602082015161321c602085018261304e565b50604082015161322f604085018261304e565b506060820151613242606085018261304e565b506080820151613255608085018261304e565b5060a082015161326860a085018261305d565b5060c082015161327b60c085018261307e565b5060e082015161328e60e085018261308d565b506101008201516132a361010085018261307e565b50505050565b60006132b583836131f2565b6101208301905092915050565b6000602082019050919050565b60006132da826131c6565b6132e481856131d1565b93506132ef836131e2565b8060005b8381101561332057815161330788826132a9565b9750613312836132c2565b9250506001810190506132f3565b5085935050505092915050565b6000602082019050818103600083015261334781846132cf565b905092915050565b61335881612de8565b811461336357600080fd5b50565b6000813590506133758161334f565b92915050565b6000806040838503121561339257613391612d59565b5b60006133a085828601612fa6565b92505060206133b185828601613366565b9150509250929050565b600080fd5b600080fd5b7f4e487b7100000000000000000000000000000000000000000000000000000000600052604160045260246000fd5b6133fd82612e64565b810181811067ffffffffffffffff8211171561341c5761341b6133c5565b5b80604052505050565b600061342f612d4f565b905061343b82826133f4565b919050565b600067ffffffffffffffff82111561345b5761345a6133c5565b5b61346482612e64565b9050602081019050919050565b82818337600083830152505050565b600061349361348e84613440565b613425565b9050828152602081018484840111156134af576134ae6133c0565b5b6134ba848285613471565b509392505050565b600082601f8301126134d7576134d66133bb565b5b81356134e7848260208601613480565b91505092915050565b6000806000806080858703121561350a57613509612d59565b5b600061351887828801612fa6565b945050602061352987828801612fa6565b935050604061353a87828801612ef1565b925050606085013567ffffffffffffffff81111561355b5761355a612d5e565b5b613567878288016134c2565b91505092959194509250565b600067ffffffffffffffff82111561358e5761358d6133c5565b5b61359782612e64565b9050602081019050919050565b60006135b76135b284613573565b613425565b9050828152602081018484840111156135d3576135d26133c0565b5b6135de848285613471565b509392505050565b600082601f8301126135fb576135fa6133bb565b5b813561360b8482602086016135a4565b91505092915050565b60008060006060848603121561362d5761362c612d59565b5b600061363b86828701612ef1565b935050602061364c86828701612ef1565b925050604084013567ffffffffffffffff81111561366d5761366c612d5e565b5b613679868287016135e6565b9150509250925092565b6000806040838503121561369a57613699612d59565b5b60006136a885828601612fa6565b92505060206136b985828601612fa6565b9150509250929050565b7f4e487b7100000000000000000000000000000000000000000000000000000000600052602260045260246000fd5b6000600282049050600182168061370a57607f821691505b60208210810361371d5761371c6136c3565b5b50919050565b7f54686973206e6674206973206e6f74206c697374656400000000000000000000600082015250565b6000613759601683612e29565b915061376482613723565b602082019050919050565b600060208201905081810360008301526137888161374c565b9050919050565b7f4e487b7100000000000000000000000000000000000000000000000000000000600052601160045260246000fd5b60006137c982612ed0565b91506137d483612ed0565b92508282019050808211156137ec576137eb61378f565b5b92915050565b7f5468652042696464696e672074696d65206d757374207375727061737365732060008201527f6f6e65207765656b000000000000000000000000000000000000000000000000602082015250565b600061384e602883612e29565b9150613859826137f2565b604082019050919050565b6000602082019050818103600083015261387d81613841565b9050919050565b600061388f82612ed0565b915061389a83612ed0565b92508282026138a881612ed0565b915082820484148315176138bf576138be61378f565b5b5092915050565b7f4e487b7100000000000000000000000000000000000000000000000000000000600052601260045260246000fd5b600061390082612ed0565b915061390b83612ed0565b92508261391b5761391a6138c6565b5b828204905092915050565b600061393182612ed0565b915061393c83612ed0565b92508282039050818111156139545761395361378f565b5b92915050565b600060608201905061396f6000830186612f65565b61397c602083018561319c565b6139896040830184612f65565b949350505050565b7f5468652073656c6563746564206e667420697320616c7265616479206c69737460008201527f6564000000000000000000000000000000000000000000000000000000000000602082015250565b60006139ed602283612e29565b91506139f882613991565b604082019050919050565b60006020820190508181036000830152613a1c816139e0565b9050919050565b7f546865206c697374696e672066656520697320302e3030312065746865720000600082015250565b6000613a59601e83612e29565b9150613a6482613a23565b602082019050919050565b60006020820190508181036000830152613a8881613a4c565b9050919050565b7f6f6e6c79206f776e65722063616e2072656c69737420746865206e6674000000600082015250565b6000613ac5601d83612e29565b9150613ad082613a8f565b602082019050919050565b60006020820190508181036000830152613af481613ab8565b9050919050565b7f55204d757374205061792047726561746572205468616e2050726576696f757360008201527f2042696400000000000000000000000000000000000000000000000000000000602082015250565b6000613b57602483612e29565b9150613b6282613afb565b604082019050919050565b60006020820190508181036000830152613b8681613b4a565b9050919050565b7f5468652073656c6563746564206e6674206973206e6f74206c69737465640000600082015250565b6000613bc3601e83612e29565b9150613bce82613b8d565b602082019050919050565b60006020820190508181036000830152613bf281613bb6565b9050919050565b7f4e487b7100000000000000000000000000000000000000000000000000000000600052603260045260246000fd5b7f726f79616c74792070657263656e742063616e74206265206d6f72652074686160008201527f6e20666966747900000000000000000000000000000000000000000000000000602082015250565b6000613c84602783612e29565b9150613c8f82613c28565b604082019050919050565b60006020820190508181036000830152613cb381613c77565b9050919050565b7f5374617274207072696365206d7573742062652061746c6561737420302e303060008201527f3220657468000000000000000000000000000000000000000000000000000000602082015250565b6000613d16602583612e29565b9150613d2182613cba565b604082019050919050565b60006020820190508181036000830152613d4581613d09565b9050919050565b6000613d5782612ed0565b91507fffffffffffffffffffffffffffffffffffffffffffffffffffffffffffffffff8203613d8957613d8861378f565b5b600182019050919050565b600081905092915050565b6000613daa82612e1e565b613db48185613d94565b9350613dc4818560208601612e3a565b80840191505092915050565b6000613ddc8285613d9f565b9150613de88284613d9f565b91508190509392505050565b600081519050919050565b600082825260208201905092915050565b6000613e1b82613df4565b613e258185613dff565b9350613e35818560208601612e3a565b613e3e81612e64565b840191505092915050565b6000608082019050613e5e6000830187612f65565b613e6b6020830186612f65565b613e78604083018561319c565b8181036060830152613e8a8184613e10565b905095945050505050565b600081519050613ea481612d8f565b92915050565b600060208284031215613ec057613ebf612d59565b5b6000613ece84828501613e95565b91505092915050565b60008190508160005260206000209050919050565b60006020601f8301049050919050565b600082821b905092915050565b600060088302613f397fffffffffffffffffffffffffffffffffffffffffffffffffffffffffffffffff82613efc565b613f438683613efc565b95508019841693508086168417925050509392505050565b6000819050919050565b6000613f80613f7b613f7684612ed0565b613f5b565b612ed0565b9050919050565b6000819050919050565b613f9a83613f65565b613fae613fa682613f87565b848454613f09565b825550505050565b600090565b613fc3613fb6565b613fce818484613f91565b505050565b5b81811015613ff257613fe7600082613fbb565b600181019050613fd4565b5050565b601f8211156140375761400881613ed7565b61401184613eec565b81016020851015614020578190505b61403461402c85613eec565b830182613fd3565b50505b505050565b600082821c905092915050565b600061405a6000198460080261403c565b1980831691505092915050565b60006140738383614049565b9150826002028217905092915050565b61408c82612e1e565b67ffffffffffffffff8111156140a5576140a46133c5565b5b6140af82546136f2565b6140ba828285613ff6565b600060209050601f8311600181146140ed57600084156140db578287015190505b6140e58582614067565b86555061414d565b601f1984166140fb86613ed7565b60005b82811015614123578489015182556001820191506020850194506020810190506140fe565b86831015614140578489015161413c601f891682614049565b8355505b6001600288020188555050505b505050505050565b600060408201905061416a6000830185612f65565b614177602083018461319c565b939250505056fea26469706673582212201fcc7a3966a32d377956070fab73e452b250655cacb2269419a957ef1b0c78fc64736f6c634300081b0033",
  "linkReferences": {},
  "deployedLinkReferences": {}
}